{
  "_format": "hh-sol-artifact-1",
  "contractName": "CarChain",
  "sourceName": "contracts/CarChain.sol",
  "abi": [
    {
      "inputs": [],
      "stateMutability": "nonpayable",
      "type": "constructor"
    },
    {
      "inputs": [
        {
          "internalType": "string",
          "name": "make",
          "type": "string"
        },
        {
          "internalType": "string",
          "name": "model",
          "type": "string"
        },
        {
          "internalType": "string",
          "name": "year",
          "type": "string"
        },
        {
          "internalType": "string",
          "name": "color",
          "type": "string"
        },
        {
          "internalType": "string",
          "name": "licensePlate",
          "type": "string"
        },
        {
          "internalType": "uint256",
          "name": "price",
          "type": "uint256"
        },
        {
          "internalType": "uint256",
          "name": "minDeposit",
          "type": "uint256"
        }
      ],
      "name": "addCar",
      "outputs": [],
      "stateMutability": "nonpayable",
      "type": "function"
    },
    {
      "inputs": [
        {
          "internalType": "address payable",
          "name": "walletAddress",
          "type": "address"
        },
        {
          "internalType": "string",
          "name": "firstName",
          "type": "string"
        },
        {
          "internalType": "string",
          "name": "lastName",
          "type": "string"
        }
      ],
      "name": "addOwner",
      "outputs": [],
      "stateMutability": "nonpayable",
      "type": "function"
    },
    {
      "inputs": [
        {
          "internalType": "address payable",
          "name": "walletAddress",
          "type": "address"
        },
        {
          "internalType": "string",
          "name": "firstName",
          "type": "string"
        },
        {
          "internalType": "string",
          "name": "lastName",
          "type": "string"
        }
      ],
      "name": "addRenter",
      "outputs": [],
      "stateMutability": "nonpayable",
      "type": "function"
    },
    {
      "inputs": [
        {
          "internalType": "address",
          "name": "walletAddress",
          "type": "address"
        }
      ],
      "name": "balanceOfRenter",
      "outputs": [
        {
          "internalType": "uint256",
          "name": "",
          "type": "uint256"
        }
      ],
      "stateMutability": "view",
      "type": "function"
    },
    {
      "inputs": [
        {
          "internalType": "address",
          "name": "walletAddress",
          "type": "address"
        }
      ],
      "name": "canRentCar",
      "outputs": [
        {
          "internalType": "bool",
          "name": "",
          "type": "bool"
        }
      ],
      "stateMutability": "view",
      "type": "function"
    },
    {
      "inputs": [
        {
          "internalType": "uint256",
          "name": "",
          "type": "uint256"
        }
      ],
      "name": "carIds",
      "outputs": [
        {
          "internalType": "uint256",
          "name": "",
          "type": "uint256"
        }
      ],
      "stateMutability": "view",
      "type": "function"
    },
    {
      "inputs": [
        {
          "internalType": "uint256",
          "name": "",
          "type": "uint256"
        }
      ],
      "name": "cars",
      "outputs": [
        {
          "internalType": "uint256",
          "name": "id",
          "type": "uint256"
        },
        {
          "internalType": "string",
          "name": "make",
          "type": "string"
        },
        {
          "internalType": "string",
          "name": "model",
          "type": "string"
        },
        {
          "internalType": "string",
          "name": "year",
          "type": "string"
        },
        {
          "internalType": "string",
          "name": "color",
          "type": "string"
        },
        {
          "internalType": "string",
          "name": "licensePlate",
          "type": "string"
        },
        {
          "internalType": "uint256",
          "name": "price",
          "type": "uint256"
        },
        {
          "internalType": "uint256",
          "name": "minDeposit",
          "type": "uint256"
        },
        {
          "internalType": "bool",
          "name": "available",
          "type": "bool"
        },
        {
          "internalType": "address",
          "name": "ownerAddress",
          "type": "address"
        }
      ],
      "stateMutability": "view",
      "type": "function"
    },
    {
      "inputs": [
        {
          "internalType": "address",
          "name": "walletAddress",
          "type": "address"
        }
      ],
      "name": "deposit",
      "outputs": [],
      "stateMutability": "payable",
      "type": "function"
    },
    {
      "inputs": [],
      "name": "dropOff",
      "outputs": [],
      "stateMutability": "nonpayable",
      "type": "function"
    },
    {
      "inputs": [],
      "name": "getAllCarIds",
      "outputs": [
        {
          "internalType": "uint256[]",
          "name": "",
          "type": "uint256[]"
        }
      ],
      "stateMutability": "view",
      "type": "function"
    },
    {
      "inputs": [],
      "name": "getContractBalance",
      "outputs": [
        {
          "internalType": "uint256",
          "name": "",
          "type": "uint256"
        }
      ],
      "stateMutability": "view",
      "type": "function"
    },
    {
      "inputs": [
        {
          "internalType": "address",
          "name": "ownerAddress",
          "type": "address"
        }
      ],
      "name": "getOwnerBalance",
      "outputs": [
        {
          "internalType": "uint256",
          "name": "",
          "type": "uint256"
        }
      ],
      "stateMutability": "view",
      "type": "function"
    },
    {
      "inputs": [
        {
          "internalType": "address",
          "name": "ownerAddress",
          "type": "address"
        }
      ],
      "name": "getOwnerCars",
      "outputs": [
        {
          "internalType": "uint256[]",
          "name": "",
          "type": "uint256[]"
        }
      ],
      "stateMutability": "view",
      "type": "function"
    },
    {
      "inputs": [
        {
          "internalType": "address",
          "name": "walletAddress",
          "type": "address"
        }
      ],
      "name": "getRentDurationMinutes",
      "outputs": [
        {
          "internalType": "uint256",
          "name": "",
          "type": "uint256"
        }
      ],
      "stateMutability": "view",
      "type": "function"
    },
    {
      "inputs": [],
      "name": "i_owner",
      "outputs": [
        {
          "internalType": "address",
          "name": "",
          "type": "address"
        }
      ],
      "stateMutability": "view",
      "type": "function"
    },
    {
      "inputs": [],
      "name": "ownerWithdraw",
      "outputs": [],
      "stateMutability": "payable",
      "type": "function"
    },
    {
      "inputs": [
        {
          "internalType": "address",
          "name": "",
          "type": "address"
        }
      ],
      "name": "owners",
      "outputs": [
        {
          "internalType": "address payable",
          "name": "walletAddress",
          "type": "address"
        },
        {
          "internalType": "string",
          "name": "firstName",
          "type": "string"
        },
        {
          "internalType": "string",
          "name": "lastName",
          "type": "string"
        },
        {
          "internalType": "uint256",
          "name": "balance",
          "type": "uint256"
        }
      ],
      "stateMutability": "view",
      "type": "function"
    },
    {
      "inputs": [
        {
          "internalType": "uint256",
          "name": "carId",
          "type": "uint256"
        }
      ],
      "name": "pickUp",
      "outputs": [],
      "stateMutability": "nonpayable",
      "type": "function"
    },
    {
      "inputs": [],
      "name": "renterWithdraw",
      "outputs": [],
      "stateMutability": "payable",
      "type": "function"
    },
    {
      "inputs": [
        {
          "internalType": "address",
          "name": "",
          "type": "address"
        }
      ],
      "name": "renters",
      "outputs": [
        {
          "internalType": "address payable",
          "name": "walletAddress",
          "type": "address"
        },
        {
          "internalType": "string",
          "name": "firstName",
          "type": "string"
        },
        {
          "internalType": "string",
          "name": "lastName",
          "type": "string"
        },
        {
          "internalType": "bool",
          "name": "canRent",
          "type": "bool"
        },
        {
          "internalType": "uint256",
          "name": "rentedCarId",
          "type": "uint256"
        },
        {
          "internalType": "uint256",
          "name": "balance",
          "type": "uint256"
        },
        {
          "internalType": "uint256",
          "name": "reservedBalance",
          "type": "uint256"
        },
        {
          "internalType": "uint256",
          "name": "rentStart",
          "type": "uint256"
        },
        {
          "internalType": "uint256",
          "name": "rentEnd",
          "type": "uint256"
        }
      ],
      "stateMutability": "view",
      "type": "function"
    }
  ],
  "bytecode": "0x60a0604052600060045534801561001557600080fd5b503373ffffffffffffffffffffffffffffffffffffffff1660808173ffffffffffffffffffffffffffffffffffffffff1681525050608051612dac61006560003960006114c50152612dac6000f3fe60806040526004361061011f5760003560e01c8063ae1885ee116100a0578063dba6335f11610064578063dba6335f146103e8578063e9fd63bb14610413578063f340fa0114610450578063f37f8c6e1461046c578063f7746e36146104835761011f565b8063ae1885ee14610324578063af6143d31461034d578063b6e6f1ec1461038a578063c6155434146103b3578063cac5122c146103de5761011f565b8063740c0f5c116100e7578063740c0f5c146102075780637fcf440a14610244578063914fe30914610281578063a9855803146102be578063aad1b617146102e75761011f565b8063022914a7146101245780634311de8f14610164578063644a13701461016e5780636f9fb98a146101b35780636ff1ed71146101de575b600080fd5b34801561013057600080fd5b5061014b60048036038101906101469190611e95565b6104c9565b60405161015b9493929190611f8c565b60405180910390f35b61016c610629565b005b34801561017a57600080fd5b5061019560048036038101906101909190611e95565b61077e565b6040516101aa99989796959493929190611ffa565b60405180910390f35b3480156101bf57600080fd5b506101c8610909565b6040516101d59190612095565b60405180910390f35b3480156101ea57600080fd5b50610205600480360381019061020091906120dc565b610911565b005b34801561021357600080fd5b5061022e600480360381019061022991906120dc565b610c24565b60405161023b9190612095565b60405180910390f35b34801561025057600080fd5b5061026b60048036038101906102669190611e95565b610c48565b6040516102789190612095565b60405180910390f35b34801561028d57600080fd5b506102a860048036038101906102a39190611e95565b610c94565b6040516102b591906121c7565b60405180910390f35b3480156102ca57600080fd5b506102e560048036038101906102e0919061231e565b610d2e565b005b3480156102f357600080fd5b5061030e60048036038101906103099190611e95565b610f46565b60405161031b9190612095565b60405180910390f35b34801561033057600080fd5b5061034b60048036038101906103469190612478565b610f91565b005b34801561035957600080fd5b50610374600480360381019061036f9190611e95565b6110f9565b6040516103819190612503565b60405180910390f35b34801561039657600080fd5b506103b160048036038101906103ac9190612478565b611151565b005b3480156103bf57600080fd5b506103c86112bb565b6040516103d591906121c7565b60405180910390f35b6103e6611313565b005b3480156103f457600080fd5b506103fd6114c3565b60405161040a919061252d565b60405180910390f35b34801561041f57600080fd5b5061043a60048036038101906104359190611e95565b6114e7565b6040516104479190612095565b60405180910390f35b61046a60048036038101906104659190611e95565b611617565b005b34801561047857600080fd5b50610481611672565b005b34801561048f57600080fd5b506104aa60048036038101906104a591906120dc565b6118ac565b6040516104c09a99989796959493929190612548565b60405180910390f35b60016020528060005260406000206000915090508060000160009054906101000a900473ffffffffffffffffffffffffffffffffffffffff169080600101805461051290612636565b80601f016020809104026020016040519081016040528092919081815260200182805461053e90612636565b801561058b5780601f106105605761010080835404028352916020019161058b565b820191906000526020600020905b81548152906001019060200180831161056e57829003601f168201915b5050505050908060020180546105a090612636565b80601f01602080910402602001604051908101604052809291908181526020018280546105cc90612636565b80156106195780601f106105ee57610100808354040283529160200191610619565b820191906000526020600020905b8154815290600101906020018083116105fc57829003601f168201915b5050505050908060030154905084565b60003390506000600160008373ffffffffffffffffffffffffffffffffffffffff1673ffffffffffffffffffffffffffffffffffffffff168152602001908152602001600020600301549050600081116106b8576040517f08c379a00000000000000000000000000000000000000000000000000000000081526004016106af906126b3565b60405180910390fd5b60003373ffffffffffffffffffffffffffffffffffffffff166108fc839081150290604051600060405180830381858888f19350505050905080610731576040517f08c379a00000000000000000000000000000000000000000000000000000000081526004016107289061271f565b60405180910390fd5b6000600160008573ffffffffffffffffffffffffffffffffffffffff1673ffffffffffffffffffffffffffffffffffffffff16815260200190815260200160002060030181905550505050565b60006020528060005260406000206000915090508060000160009054906101000a900473ffffffffffffffffffffffffffffffffffffffff16908060010180546107c790612636565b80601f01602080910402602001604051908101604052809291908181526020018280546107f390612636565b80156108405780601f1061081557610100808354040283529160200191610840565b820191906000526020600020905b81548152906001019060200180831161082357829003601f168201915b50505050509080600201805461085590612636565b80601f016020809104026020016040519081016040528092919081815260200182805461088190612636565b80156108ce5780601f106108a3576101008083540402835291602001916108ce565b820191906000526020600020905b8154815290600101906020018083116108b157829003601f168201915b5050505050908060030160009054906101000a900460ff16908060040154908060050154908060060154908060070154908060080154905089565b600047905090565b6000339050600115156002600084815260200190815260200160002060080160009054906101000a900460ff16151514610980576040517f08c379a00000000000000000000000000000000000000000000000000000000081526004016109779061278b565b60405180910390fd5b600115156000808373ffffffffffffffffffffffffffffffffffffffff1673ffffffffffffffffffffffffffffffffffffffff16815260200190815260200160002060030160009054906101000a900460ff16151514610a15576040517f08c379a0000000000000000000000000000000000000000000000000000000008152600401610a0c906127f7565b60405180910390fd5b60026000838152602001908152602001600020600701546000808373ffffffffffffffffffffffffffffffffffffffff1673ffffffffffffffffffffffffffffffffffffffff168152602001908152602001600020600501541015610aaf576040517f08c379a0000000000000000000000000000000000000000000000000000000008152600401610aa690612863565b60405180910390fd5b426000808373ffffffffffffffffffffffffffffffffffffffff1673ffffffffffffffffffffffffffffffffffffffff1681526020019081526020016000206007018190555060008060008373ffffffffffffffffffffffffffffffffffffffff1673ffffffffffffffffffffffffffffffffffffffff16815260200190815260200160002060030160006101000a81548160ff021916908315150217905550816000808373ffffffffffffffffffffffffffffffffffffffff1673ffffffffffffffffffffffffffffffffffffffff1681526020019081526020016000206004018190555060026000838152602001908152602001600020600701546000808373ffffffffffffffffffffffffffffffffffffffff1673ffffffffffffffffffffffffffffffffffffffff1681526020019081526020016000206006018190555060006002600084815260200190815260200160002060080160006101000a81548160ff0219169083151502179055505050565b60038181548110610c3457600080fd5b906000526020600020016000915090505481565b6000600160008373ffffffffffffffffffffffffffffffffffffffff1673ffffffffffffffffffffffffffffffffffffffff168152602001908152602001600020600301549050919050565b6060600160008373ffffffffffffffffffffffffffffffffffffffff1673ffffffffffffffffffffffffffffffffffffffff168152602001908152602001600020600401805480602002602001604051908101604052809291908181526020018280548015610d2257602002820191906000526020600020905b815481526020019060010190808311610d0e575b50505050509050919050565b6000610d38611bd5565b905060003390506040518061014001604052808381526020018a81526020018981526020018881526020018781526020018681526020018581526020018481526020016001151581526020018273ffffffffffffffffffffffffffffffffffffffff1681525060026000848152602001908152602001600020600082015181600001556020820151816001019081610dd09190612a2f565b506040820151816002019081610de69190612a2f565b506060820151816003019081610dfc9190612a2f565b506080820151816004019081610e129190612a2f565b5060a0820151816005019081610e289190612a2f565b5060c0820151816006015560e082015181600701556101008201518160080160006101000a81548160ff0219169083151502179055506101208201518160080160016101000a81548173ffffffffffffffffffffffffffffffffffffffff021916908373ffffffffffffffffffffffffffffffffffffffff160217905550905050600160008273ffffffffffffffffffffffffffffffffffffffff1673ffffffffffffffffffffffffffffffffffffffff1681526020019081526020016000206004018290806001815401808255809150506001900390600052602060002001600090919091909150556003829080600181540180825580915050600190039060005260206000200160009091909190915055505050505050505050565b60008060008373ffffffffffffffffffffffffffffffffffffffff1673ffffffffffffffffffffffffffffffffffffffff168152602001908152602001600020600501549050919050565b6040518060a001604052808473ffffffffffffffffffffffffffffffffffffffff16815260200183815260200182815260200160008152602001600067ffffffffffffffff811115610fe657610fe56121f3565b5b6040519080825280602002602001820160405280156110145781602001602082028036833780820191505090505b50815250600160008573ffffffffffffffffffffffffffffffffffffffff1673ffffffffffffffffffffffffffffffffffffffff16815260200190815260200160002060008201518160000160006101000a81548173ffffffffffffffffffffffffffffffffffffffff021916908373ffffffffffffffffffffffffffffffffffffffff16021790555060208201518160010190816110b39190612a2f565b5060408201518160020190816110c99190612a2f565b506060820151816003015560808201518160040190805190602001906110f0929190611db9565b50905050505050565b60008060008373ffffffffffffffffffffffffffffffffffffffff1673ffffffffffffffffffffffffffffffffffffffff16815260200190815260200160002060030160009054906101000a900460ff169050919050565b6040518061012001604052808473ffffffffffffffffffffffffffffffffffffffff1681526020018381526020018281526020016001151581526020016000815260200160008152602001600081526020016000815260200160008152506000808573ffffffffffffffffffffffffffffffffffffffff1673ffffffffffffffffffffffffffffffffffffffff16815260200190815260200160002060008201518160000160006101000a81548173ffffffffffffffffffffffffffffffffffffffff021916908373ffffffffffffffffffffffffffffffffffffffff16021790555060208201518160010190816112499190612a2f565b50604082015181600201908161125f9190612a2f565b5060608201518160030160006101000a81548160ff0219169083151502179055506080820151816004015560a0820151816005015560c0820151816006015560e082015181600701556101008201518160080155905050505050565b6060600380548060200260200160405190810160405280929190818152602001828054801561130957602002820191906000526020600020905b8154815260200190600101908083116112f5575b5050505050905090565b600033905060008060008373ffffffffffffffffffffffffffffffffffffffff1673ffffffffffffffffffffffffffffffffffffffff168152602001908152602001600020600601546000808473ffffffffffffffffffffffffffffffffffffffff1673ffffffffffffffffffffffffffffffffffffffff168152602001908152602001600020600501546113a89190612b30565b9050600081116113ed576040517f08c379a00000000000000000000000000000000000000000000000000000000081526004016113e4906126b3565b60405180910390fd5b60003373ffffffffffffffffffffffffffffffffffffffff166108fc839081150290604051600060405180830381858888f19350505050905080611466576040517f08c379a000000000000000000000000000000000000000000000000000000000815260040161145d9061271f565b60405180910390fd5b816000808573ffffffffffffffffffffffffffffffffffffffff1673ffffffffffffffffffffffffffffffffffffffff16815260200190815260200160002060050160008282546114b79190612b30565b92505081905550505050565b7f000000000000000000000000000000000000000000000000000000000000000081565b6000806000808473ffffffffffffffffffffffffffffffffffffffff1673ffffffffffffffffffffffffffffffffffffffff168152602001908152602001600020600401540361156c576040517f08c379a000000000000000000000000000000000000000000000000000000000815260040161156390612bb0565b60405180910390fd5b60006115fa6000808573ffffffffffffffffffffffffffffffffffffffff1673ffffffffffffffffffffffffffffffffffffffff168152602001908152602001600020600701546000808673ffffffffffffffffffffffffffffffffffffffff1673ffffffffffffffffffffffffffffffffffffffff16815260200190815260200160002060080154611bf9565b90506000603c8261160b9190612bff565b90508092505050919050565b346000808373ffffffffffffffffffffffffffffffffffffffff1673ffffffffffffffffffffffffffffffffffffffff16815260200190815260200160002060050160008282546116689190612c30565b9250508190555050565b600033905060008060008373ffffffffffffffffffffffffffffffffffffffff1673ffffffffffffffffffffffffffffffffffffffff16815260200190815260200160002060040154905060008060008473ffffffffffffffffffffffffffffffffffffffff1673ffffffffffffffffffffffffffffffffffffffff1681526020019081526020016000206004015403611741576040517f08c379a000000000000000000000000000000000000000000000000000000000815260040161173890612bb0565b60405180910390fd5b426000808473ffffffffffffffffffffffffffffffffffffffff1673ffffffffffffffffffffffffffffffffffffffff168152602001908152602001600020600801819055506117918282611c0f565b60016000808473ffffffffffffffffffffffffffffffffffffffff1673ffffffffffffffffffffffffffffffffffffffff16815260200190815260200160002060030160006101000a81548160ff02191690831515021790555060008060008473ffffffffffffffffffffffffffffffffffffffff1673ffffffffffffffffffffffffffffffffffffffff1681526020019081526020016000206006018190555060008060008473ffffffffffffffffffffffffffffffffffffffff1673ffffffffffffffffffffffffffffffffffffffff1681526020019081526020016000206004018190555060016002600083815260200190815260200160002060080160006101000a81548160ff0219169083151502179055505050565b60026020528060005260406000206000915090508060000154908060010180546118d590612636565b80601f016020809104026020016040519081016040528092919081815260200182805461190190612636565b801561194e5780601f106119235761010080835404028352916020019161194e565b820191906000526020600020905b81548152906001019060200180831161193157829003601f168201915b50505050509080600201805461196390612636565b80601f016020809104026020016040519081016040528092919081815260200182805461198f90612636565b80156119dc5780601f106119b1576101008083540402835291602001916119dc565b820191906000526020600020905b8154815290600101906020018083116119bf57829003601f168201915b5050505050908060030180546119f190612636565b80601f0160208091040260200160405190810160405280929190818152602001828054611a1d90612636565b8015611a6a5780601f10611a3f57610100808354040283529160200191611a6a565b820191906000526020600020905b815481529060010190602001808311611a4d57829003601f168201915b505050505090806004018054611a7f90612636565b80601f0160208091040260200160405190810160405280929190818152602001828054611aab90612636565b8015611af85780601f10611acd57610100808354040283529160200191611af8565b820191906000526020600020905b815481529060010190602001808311611adb57829003601f168201915b505050505090806005018054611b0d90612636565b80601f0160208091040260200160405190810160405280929190818152602001828054611b3990612636565b8015611b865780601f10611b5b57610100808354040283529160200191611b86565b820191906000526020600020905b815481529060010190602001808311611b6957829003601f168201915b5050505050908060060154908060070154908060080160009054906101000a900460ff16908060080160019054906101000a900473ffffffffffffffffffffffffffffffffffffffff1690508a565b6000600160046000828254611bea9190612c30565b92505081905550600454905090565b60008282611c079190612b30565b905092915050565b6000611c1a836114e7565b90506000600260008481526020019081526020016000206006015482611c409190612c64565b9050806000808673ffffffffffffffffffffffffffffffffffffffff1673ffffffffffffffffffffffffffffffffffffffff168152602001908152602001600020600501541015611cc6576040517f08c379a0000000000000000000000000000000000000000000000000000000008152600401611cbd90612d56565b60405180910390fd5b806000808673ffffffffffffffffffffffffffffffffffffffff1673ffffffffffffffffffffffffffffffffffffffff1681526020019081526020016000206005016000828254611d179190612b30565b9250508190555060006002600085815260200190815260200160002060080160019054906101000a900473ffffffffffffffffffffffffffffffffffffffff16905081600160008373ffffffffffffffffffffffffffffffffffffffff1673ffffffffffffffffffffffffffffffffffffffff1681526020019081526020016000206003016000828254611dab9190612c30565b925050819055505050505050565b828054828255906000526020600020908101928215611df5579160200282015b82811115611df4578251825591602001919060010190611dd9565b5b509050611e029190611e06565b5090565b5b80821115611e1f576000816000905550600101611e07565b5090565b6000604051905090565b600080fd5b600080fd5b600073ffffffffffffffffffffffffffffffffffffffff82169050919050565b6000611e6282611e37565b9050919050565b611e7281611e57565b8114611e7d57600080fd5b50565b600081359050611e8f81611e69565b92915050565b600060208284031215611eab57611eaa611e2d565b5b6000611eb984828501611e80565b91505092915050565b6000611ecd82611e37565b9050919050565b611edd81611ec2565b82525050565b600081519050919050565b600082825260208201905092915050565b60005b83811015611f1d578082015181840152602081019050611f02565b60008484015250505050565b6000601f19601f8301169050919050565b6000611f4582611ee3565b611f4f8185611eee565b9350611f5f818560208601611eff565b611f6881611f29565b840191505092915050565b6000819050919050565b611f8681611f73565b82525050565b6000608082019050611fa16000830187611ed4565b8181036020830152611fb38186611f3a565b90508181036040830152611fc78185611f3a565b9050611fd66060830184611f7d565b95945050505050565b60008115159050919050565b611ff481611fdf565b82525050565b600061012082019050612010600083018c611ed4565b8181036020830152612022818b611f3a565b90508181036040830152612036818a611f3a565b90506120456060830189611feb565b6120526080830188611f7d565b61205f60a0830187611f7d565b61206c60c0830186611f7d565b61207960e0830185611f7d565b612087610100830184611f7d565b9a9950505050505050505050565b60006020820190506120aa6000830184611f7d565b92915050565b6120b981611f73565b81146120c457600080fd5b50565b6000813590506120d6816120b0565b92915050565b6000602082840312156120f2576120f1611e2d565b5b6000612100848285016120c7565b91505092915050565b600081519050919050565b600082825260208201905092915050565b6000819050602082019050919050565b61213e81611f73565b82525050565b60006121508383612135565b60208301905092915050565b6000602082019050919050565b600061217482612109565b61217e8185612114565b935061218983612125565b8060005b838110156121ba5781516121a18882612144565b97506121ac8361215c565b92505060018101905061218d565b5085935050505092915050565b600060208201905081810360008301526121e18184612169565b905092915050565b600080fd5b600080fd5b7f4e487b7100000000000000000000000000000000000000000000000000000000600052604160045260246000fd5b61222b82611f29565b810181811067ffffffffffffffff8211171561224a576122496121f3565b5b80604052505050565b600061225d611e23565b90506122698282612222565b919050565b600067ffffffffffffffff821115612289576122886121f3565b5b61229282611f29565b9050602081019050919050565b82818337600083830152505050565b60006122c16122bc8461226e565b612253565b9050828152602081018484840111156122dd576122dc6121ee565b5b6122e884828561229f565b509392505050565b600082601f830112612305576123046121e9565b5b81356123158482602086016122ae565b91505092915050565b600080600080600080600060e0888a03121561233d5761233c611e2d565b5b600088013567ffffffffffffffff81111561235b5761235a611e32565b5b6123678a828b016122f0565b975050602088013567ffffffffffffffff81111561238857612387611e32565b5b6123948a828b016122f0565b965050604088013567ffffffffffffffff8111156123b5576123b4611e32565b5b6123c18a828b016122f0565b955050606088013567ffffffffffffffff8111156123e2576123e1611e32565b5b6123ee8a828b016122f0565b945050608088013567ffffffffffffffff81111561240f5761240e611e32565b5b61241b8a828b016122f0565b93505060a061242c8a828b016120c7565b92505060c061243d8a828b016120c7565b91505092959891949750929550565b61245581611ec2565b811461246057600080fd5b50565b6000813590506124728161244c565b92915050565b60008060006060848603121561249157612490611e2d565b5b600061249f86828701612463565b935050602084013567ffffffffffffffff8111156124c0576124bf611e32565b5b6124cc868287016122f0565b925050604084013567ffffffffffffffff8111156124ed576124ec611e32565b5b6124f9868287016122f0565b9150509250925092565b60006020820190506125186000830184611feb565b92915050565b61252781611e57565b82525050565b6000602082019050612542600083018461251e565b92915050565b60006101408201905061255e600083018d611f7d565b8181036020830152612570818c611f3a565b90508181036040830152612584818b611f3a565b90508181036060830152612598818a611f3a565b905081810360808301526125ac8189611f3a565b905081810360a08301526125c08188611f3a565b90506125cf60c0830187611f7d565b6125dc60e0830186611f7d565b6125ea610100830185611feb565b6125f861012083018461251e565b9b9a5050505050505050505050565b7f4e487b7100000000000000000000000000000000000000000000000000000000600052602260045260246000fd5b6000600282049050600182168061264e57607f821691505b60208210810361266157612660612607565b5b50919050565b7f596f752068617665206e6f206d6f6e657920746f207769746864726177000000600082015250565b600061269d601d83611eee565b91506126a882612667565b602082019050919050565b600060208201905081810360008301526126cc81612690565b9050919050565b7f4661696c656420746f2073656e64204574686572000000000000000000000000600082015250565b6000612709601483611eee565b9150612714826126d3565b602082019050919050565b60006020820190508181036000830152612738816126fc565b9050919050565b7f436172206973206e6f7420617661696c61626c65000000000000000000000000600082015250565b6000612775601483611eee565b91506127808261273f565b602082019050919050565b600060208201905081810360008301526127a481612768565b9050919050565b7f596f752063616e206e6f742072656e7420617420746869732074696d65000000600082015250565b60006127e1601d83611eee565b91506127ec826127ab565b602082019050919050565b60006020820190508181036000830152612810816127d4565b9050919050565b7f796f7572206465706f73697420697320746f6f206c6f77000000000000000000600082015250565b600061284d601783611eee565b915061285882612817565b602082019050919050565b6000602082019050818103600083015261287c81612840565b9050919050565b60008190508160005260206000209050919050565b60006020601f8301049050919050565b600082821b905092915050565b6000600883026128e57fffffffffffffffffffffffffffffffffffffffffffffffffffffffffffffffff826128a8565b6128ef86836128a8565b95508019841693508086168417925050509392505050565b6000819050919050565b600061292c61292761292284611f73565b612907565b611f73565b9050919050565b6000819050919050565b61294683612911565b61295a61295282612933565b8484546128b5565b825550505050565b600090565b61296f612962565b61297a81848461293d565b505050565b5b8181101561299e57612993600082612967565b600181019050612980565b5050565b601f8211156129e3576129b481612883565b6129bd84612898565b810160208510156129cc578190505b6129e06129d885612898565b83018261297f565b50505b505050565b600082821c905092915050565b6000612a06600019846008026129e8565b1980831691505092915050565b6000612a1f83836129f5565b9150826002028217905092915050565b612a3882611ee3565b67ffffffffffffffff811115612a5157612a506121f3565b5b612a5b8254612636565b612a668282856129a2565b600060209050601f831160018114612a995760008415612a87578287015190505b612a918582612a13565b865550612af9565b601f198416612aa786612883565b60005b82811015612acf57848901518255600182019150602085019450602081019050612aaa565b86831015612aec5784890151612ae8601f8916826129f5565b8355505b6001600288020188555050505b505050505050565b7f4e487b7100000000000000000000000000000000000000000000000000000000600052601160045260246000fd5b6000612b3b82611f73565b9150612b4683611f73565b9250828203905081811115612b5e57612b5d612b01565b5b92915050565b7f796f75206861766520746f2072656e7420612063617220666972737400000000600082015250565b6000612b9a601c83611eee565b9150612ba582612b64565b602082019050919050565b60006020820190508181036000830152612bc981612b8d565b9050919050565b7f4e487b7100000000000000000000000000000000000000000000000000000000600052601260045260246000fd5b6000612c0a82611f73565b9150612c1583611f73565b925082612c2557612c24612bd0565b5b828204905092915050565b6000612c3b82611f73565b9150612c4683611f73565b9250828201905080821115612c5e57612c5d612b01565b5b92915050565b6000612c6f82611f73565b9150612c7a83611f73565b9250817fffffffffffffffffffffffffffffffffffffffffffffffffffffffffffffffff0483118215151615612cb357612cb2612b01565b5b828202905092915050565b7f596f7520646f6e2774206861766520656e6f756768742066756e647320746f2060008201527f636f766572207061796d656e742e20506c65617365206d616b6520612064657060208201527f6f7369742e000000000000000000000000000000000000000000000000000000604082015250565b6000612d40604583611eee565b9150612d4b82612cbe565b606082019050919050565b60006020820190508181036000830152612d6f81612d33565b905091905056fea2646970667358221220c21023d434c421e009209d1a36dfa0ce938272ed482c9bc893790e7bfeb597c164736f6c63430008100033",
  "linkReferences": {},
  "deployedLinkReferences": {}
}