{
  "_format": "hh-sol-artifact-1",
  "contractName": "CarChain",
  "sourceName": "contracts/CarChain.sol",
  "abi": [
    {
      "inputs": [],
      "stateMutability": "nonpayable",
      "type": "constructor"
    },
    {
      "inputs": [
        {
          "internalType": "string",
          "name": "make",
          "type": "string"
        },
        {
          "internalType": "string",
          "name": "model",
          "type": "string"
        },
        {
          "internalType": "string",
          "name": "year",
          "type": "string"
        },
        {
          "internalType": "string",
          "name": "color",
          "type": "string"
        },
        {
          "internalType": "string",
          "name": "licensePlate",
          "type": "string"
        },
        {
          "internalType": "uint256",
          "name": "price",
          "type": "uint256"
        },
        {
          "internalType": "uint256",
          "name": "minDeposit",
          "type": "uint256"
        }
      ],
      "name": "addCar",
      "outputs": [],
      "stateMutability": "nonpayable",
      "type": "function"
    },
    {
      "inputs": [
        {
          "internalType": "address payable",
          "name": "walletAddress",
          "type": "address"
        },
        {
          "internalType": "string",
          "name": "firstName",
          "type": "string"
        },
        {
          "internalType": "string",
          "name": "lastName",
          "type": "string"
        }
      ],
      "name": "addOwner",
      "outputs": [],
      "stateMutability": "nonpayable",
      "type": "function"
    },
    {
      "inputs": [
        {
          "internalType": "address payable",
          "name": "walletAddress",
          "type": "address"
        },
        {
          "internalType": "string",
          "name": "firstName",
          "type": "string"
        },
        {
          "internalType": "string",
          "name": "lastName",
          "type": "string"
        }
      ],
      "name": "addRenter",
      "outputs": [],
      "stateMutability": "nonpayable",
      "type": "function"
    },
    {
      "inputs": [
        {
          "internalType": "address",
          "name": "walletAddress",
          "type": "address"
        }
      ],
      "name": "balanceOfRenter",
      "outputs": [
        {
          "internalType": "uint256",
          "name": "",
          "type": "uint256"
        }
      ],
      "stateMutability": "view",
      "type": "function"
    },
    {
      "inputs": [
        {
          "internalType": "address",
          "name": "walletAddress",
          "type": "address"
        }
      ],
      "name": "canRentCar",
      "outputs": [
        {
          "internalType": "bool",
          "name": "",
          "type": "bool"
        }
      ],
      "stateMutability": "view",
      "type": "function"
    },
    {
      "inputs": [
        {
          "internalType": "uint256",
          "name": "",
          "type": "uint256"
        }
      ],
      "name": "carIds",
      "outputs": [
        {
          "internalType": "uint256",
          "name": "",
          "type": "uint256"
        }
      ],
      "stateMutability": "view",
      "type": "function"
    },
    {
      "inputs": [
        {
          "internalType": "uint256",
          "name": "",
          "type": "uint256"
        }
      ],
      "name": "cars",
      "outputs": [
        {
          "internalType": "uint256",
          "name": "id",
          "type": "uint256"
        },
        {
          "internalType": "string",
          "name": "make",
          "type": "string"
        },
        {
          "internalType": "string",
          "name": "model",
          "type": "string"
        },
        {
          "internalType": "string",
          "name": "year",
          "type": "string"
        },
        {
          "internalType": "string",
          "name": "color",
          "type": "string"
        },
        {
          "internalType": "string",
          "name": "licensePlate",
          "type": "string"
        },
        {
          "internalType": "uint256",
          "name": "price",
          "type": "uint256"
        },
        {
          "internalType": "uint256",
          "name": "minDeposit",
          "type": "uint256"
        },
        {
          "internalType": "bool",
          "name": "available",
          "type": "bool"
        },
        {
          "internalType": "address",
          "name": "ownerAddress",
          "type": "address"
        }
      ],
      "stateMutability": "view",
      "type": "function"
    },
    {
      "inputs": [
        {
          "internalType": "address",
          "name": "walletAddress",
          "type": "address"
        }
      ],
      "name": "deposit",
      "outputs": [],
      "stateMutability": "payable",
      "type": "function"
    },
    {
      "inputs": [],
      "name": "dropOff",
      "outputs": [],
      "stateMutability": "nonpayable",
      "type": "function"
    },
    {
      "inputs": [],
      "name": "getAllCarIds",
      "outputs": [
        {
          "internalType": "uint256[]",
          "name": "",
          "type": "uint256[]"
        }
      ],
      "stateMutability": "view",
      "type": "function"
    },
    {
      "inputs": [],
      "name": "getContractBalance",
      "outputs": [
        {
          "internalType": "uint256",
          "name": "",
          "type": "uint256"
        }
      ],
      "stateMutability": "view",
      "type": "function"
    },
    {
      "inputs": [
        {
          "internalType": "address",
          "name": "ownerAddress",
          "type": "address"
        }
      ],
      "name": "getOwnerBalance",
      "outputs": [
        {
          "internalType": "uint256",
          "name": "",
          "type": "uint256"
        }
      ],
      "stateMutability": "view",
      "type": "function"
    },
    {
      "inputs": [
        {
          "internalType": "address",
          "name": "ownerAddress",
          "type": "address"
        }
      ],
      "name": "getOwnerCars",
      "outputs": [
        {
          "internalType": "uint256[]",
          "name": "",
          "type": "uint256[]"
        }
      ],
      "stateMutability": "view",
      "type": "function"
    },
    {
      "inputs": [
        {
          "internalType": "address",
          "name": "walletAddress",
          "type": "address"
        }
      ],
      "name": "getRentDurationMinutes",
      "outputs": [
        {
          "internalType": "uint256",
          "name": "",
          "type": "uint256"
        }
      ],
      "stateMutability": "view",
      "type": "function"
    },
    {
      "inputs": [],
      "name": "i_owner",
      "outputs": [
        {
          "internalType": "address",
          "name": "",
          "type": "address"
        }
      ],
      "stateMutability": "view",
      "type": "function"
    },
    {
      "inputs": [
        {
          "internalType": "uint256",
          "name": "amount",
          "type": "uint256"
        }
      ],
      "name": "ownerWithdraw",
      "outputs": [],
      "stateMutability": "payable",
      "type": "function"
    },
    {
      "inputs": [
        {
          "internalType": "address",
          "name": "",
          "type": "address"
        }
      ],
      "name": "owners",
      "outputs": [
        {
          "internalType": "address payable",
          "name": "walletAddress",
          "type": "address"
        },
        {
          "internalType": "string",
          "name": "firstName",
          "type": "string"
        },
        {
          "internalType": "string",
          "name": "lastName",
          "type": "string"
        },
        {
          "internalType": "uint256",
          "name": "balance",
          "type": "uint256"
        }
      ],
      "stateMutability": "view",
      "type": "function"
    },
    {
      "inputs": [
        {
          "internalType": "uint256",
          "name": "carId",
          "type": "uint256"
        }
      ],
      "name": "pickUp",
      "outputs": [],
      "stateMutability": "nonpayable",
      "type": "function"
    },
    {
      "inputs": [
        {
          "internalType": "uint256",
          "name": "amount",
          "type": "uint256"
        }
      ],
      "name": "renterWithdraw",
      "outputs": [],
      "stateMutability": "payable",
      "type": "function"
    },
    {
      "inputs": [
        {
          "internalType": "address",
          "name": "",
          "type": "address"
        }
      ],
      "name": "renters",
      "outputs": [
        {
          "internalType": "address payable",
          "name": "walletAddress",
          "type": "address"
        },
        {
          "internalType": "string",
          "name": "firstName",
          "type": "string"
        },
        {
          "internalType": "string",
          "name": "lastName",
          "type": "string"
        },
        {
          "internalType": "bool",
          "name": "canRent",
          "type": "bool"
        },
        {
          "internalType": "uint256",
          "name": "rentedCarId",
          "type": "uint256"
        },
        {
          "internalType": "uint256",
          "name": "balance",
          "type": "uint256"
        },
        {
          "internalType": "uint256",
          "name": "reservedBalance",
          "type": "uint256"
        },
        {
          "internalType": "uint256",
          "name": "rentStart",
          "type": "uint256"
        },
        {
          "internalType": "uint256",
          "name": "rentEnd",
          "type": "uint256"
        }
      ],
      "stateMutability": "view",
      "type": "function"
    }
  ],
  "bytecode": "0x60a0604052600060045534801561001557600080fd5b503373ffffffffffffffffffffffffffffffffffffffff1660808173ffffffffffffffffffffffffffffffffffffffff1681525050608051612e09610065600039600061134b0152612e096000f3fe60806040526004361061011f5760003560e01c8063ae1885ee116100a0578063e9fd63bb11610064578063e9fd63bb1461041b578063f340fa0114610458578063f37f8c6e14610474578063f7746e361461048b578063f7ce1639146104d15761011f565b8063ae1885ee14610336578063af6143d31461035f578063b6e6f1ec1461039c578063c6155434146103c5578063dba6335f146103f05761011f565b8063740c0f5c116100e7578063740c0f5c146102195780637fcf440a14610256578063914fe30914610293578063a9855803146102d0578063aad1b617146102f95761011f565b8063022914a71461012457806333f707d114610164578063644a1370146101805780636f9fb98a146101c55780636ff1ed71146101f0575b600080fd5b34801561013057600080fd5b5061014b60048036038101906101469190611ecc565b6104ed565b60405161015b9493929190611fc3565b60405180910390f35b61017e60048036038101906101799190612042565b61064d565b005b34801561018c57600080fd5b506101a760048036038101906101a29190611ecc565b6107b4565b6040516101bc9998979695949392919061208a565b60405180910390f35b3480156101d157600080fd5b506101da61093f565b6040516101e79190612125565b60405180910390f35b3480156101fc57600080fd5b5061021760048036038101906102129190612042565b610947565b005b34801561022557600080fd5b50610240600480360381019061023b9190612042565b610c5a565b60405161024d9190612125565b60405180910390f35b34801561026257600080fd5b5061027d60048036038101906102789190611ecc565b610c7e565b60405161028a9190612125565b60405180910390f35b34801561029f57600080fd5b506102ba60048036038101906102b59190611ecc565b610cca565b6040516102c791906121fe565b60405180910390f35b3480156102dc57600080fd5b506102f760048036038101906102f29190612355565b610d64565b005b34801561030557600080fd5b50610320600480360381019061031b9190611ecc565b610f7c565b60405161032d9190612125565b60405180910390f35b34801561034257600080fd5b5061035d600480360381019061035891906124af565b610fc7565b005b34801561036b57600080fd5b5061038660048036038101906103819190611ecc565b61112f565b604051610393919061253a565b60405180910390f35b3480156103a857600080fd5b506103c360048036038101906103be91906124af565b611187565b005b3480156103d157600080fd5b506103da6112f1565b6040516103e791906121fe565b60405180910390f35b3480156103fc57600080fd5b50610405611349565b6040516104129190612564565b60405180910390f35b34801561042757600080fd5b50610442600480360381019061043d9190611ecc565b61136d565b60405161044f9190612125565b60405180910390f35b610472600480360381019061046d9190611ecc565b61149d565b005b34801561048057600080fd5b506104896114f8565b005b34801561049757600080fd5b506104b260048036038101906104ad9190612042565b611732565b6040516104c89a9998979695949392919061257f565b60405180910390f35b6104eb60048036038101906104e69190612042565b611a5b565b005b60016020528060005260406000206000915090508060000160009054906101000a900473ffffffffffffffffffffffffffffffffffffffff16908060010180546105369061266d565b80601f01602080910402602001604051908101604052809291908181526020018280546105629061266d565b80156105af5780601f10610584576101008083540402835291602001916105af565b820191906000526020600020905b81548152906001019060200180831161059257829003601f168201915b5050505050908060020180546105c49061266d565b80601f01602080910402602001604051908101604052809291908181526020018280546105f09061266d565b801561063d5780601f106106125761010080835404028352916020019161063d565b820191906000526020600020905b81548152906001019060200180831161062057829003601f168201915b5050505050908060030154905084565b60003390506000600160008373ffffffffffffffffffffffffffffffffffffffff1673ffffffffffffffffffffffffffffffffffffffff168152602001908152602001600020600301549050808311156106dc576040517f08c379a00000000000000000000000000000000000000000000000000000000081526004016106d390612710565b60405180910390fd5b60003373ffffffffffffffffffffffffffffffffffffffff166108fc859081150290604051600060405180830381858888f19350505050905080610755576040517f08c379a000000000000000000000000000000000000000000000000000000000815260040161074c9061277c565b60405180910390fd5b83600160008573ffffffffffffffffffffffffffffffffffffffff1673ffffffffffffffffffffffffffffffffffffffff16815260200190815260200160002060030160008282546107a791906127cb565b9250508190555050505050565b60006020528060005260406000206000915090508060000160009054906101000a900473ffffffffffffffffffffffffffffffffffffffff16908060010180546107fd9061266d565b80601f01602080910402602001604051908101604052809291908181526020018280546108299061266d565b80156108765780601f1061084b57610100808354040283529160200191610876565b820191906000526020600020905b81548152906001019060200180831161085957829003601f168201915b50505050509080600201805461088b9061266d565b80601f01602080910402602001604051908101604052809291908181526020018280546108b79061266d565b80156109045780601f106108d957610100808354040283529160200191610904565b820191906000526020600020905b8154815290600101906020018083116108e757829003601f168201915b5050505050908060030160009054906101000a900460ff16908060040154908060050154908060060154908060070154908060080154905089565b600047905090565b6000339050600115156002600084815260200190815260200160002060080160009054906101000a900460ff161515146109b6576040517f08c379a00000000000000000000000000000000000000000000000000000000081526004016109ad9061284b565b60405180910390fd5b600115156000808373ffffffffffffffffffffffffffffffffffffffff1673ffffffffffffffffffffffffffffffffffffffff16815260200190815260200160002060030160009054906101000a900460ff16151514610a4b576040517f08c379a0000000000000000000000000000000000000000000000000000000008152600401610a42906128b7565b60405180910390fd5b60026000838152602001908152602001600020600701546000808373ffffffffffffffffffffffffffffffffffffffff1673ffffffffffffffffffffffffffffffffffffffff168152602001908152602001600020600501541015610ae5576040517f08c379a0000000000000000000000000000000000000000000000000000000008152600401610adc90612923565b60405180910390fd5b426000808373ffffffffffffffffffffffffffffffffffffffff1673ffffffffffffffffffffffffffffffffffffffff1681526020019081526020016000206007018190555060008060008373ffffffffffffffffffffffffffffffffffffffff1673ffffffffffffffffffffffffffffffffffffffff16815260200190815260200160002060030160006101000a81548160ff021916908315150217905550816000808373ffffffffffffffffffffffffffffffffffffffff1673ffffffffffffffffffffffffffffffffffffffff1681526020019081526020016000206004018190555060026000838152602001908152602001600020600701546000808373ffffffffffffffffffffffffffffffffffffffff1673ffffffffffffffffffffffffffffffffffffffff1681526020019081526020016000206006018190555060006002600084815260200190815260200160002060080160006101000a81548160ff0219169083151502179055505050565b60038181548110610c6a57600080fd5b906000526020600020016000915090505481565b6000600160008373ffffffffffffffffffffffffffffffffffffffff1673ffffffffffffffffffffffffffffffffffffffff168152602001908152602001600020600301549050919050565b6060600160008373ffffffffffffffffffffffffffffffffffffffff1673ffffffffffffffffffffffffffffffffffffffff168152602001908152602001600020600401805480602002602001604051908101604052809291908181526020018280548015610d5857602002820191906000526020600020905b815481526020019060010190808311610d44575b50505050509050919050565b6000610d6e611c0c565b905060003390506040518061014001604052808381526020018a81526020018981526020018881526020018781526020018681526020018581526020018481526020016001151581526020018273ffffffffffffffffffffffffffffffffffffffff1681525060026000848152602001908152602001600020600082015181600001556020820151816001019081610e069190612aef565b506040820151816002019081610e1c9190612aef565b506060820151816003019081610e329190612aef565b506080820151816004019081610e489190612aef565b5060a0820151816005019081610e5e9190612aef565b5060c0820151816006015560e082015181600701556101008201518160080160006101000a81548160ff0219169083151502179055506101208201518160080160016101000a81548173ffffffffffffffffffffffffffffffffffffffff021916908373ffffffffffffffffffffffffffffffffffffffff160217905550905050600160008273ffffffffffffffffffffffffffffffffffffffff1673ffffffffffffffffffffffffffffffffffffffff1681526020019081526020016000206004018290806001815401808255809150506001900390600052602060002001600090919091909150556003829080600181540180825580915050600190039060005260206000200160009091909190915055505050505050505050565b60008060008373ffffffffffffffffffffffffffffffffffffffff1673ffffffffffffffffffffffffffffffffffffffff168152602001908152602001600020600501549050919050565b6040518060a001604052808473ffffffffffffffffffffffffffffffffffffffff16815260200183815260200182815260200160008152602001600067ffffffffffffffff81111561101c5761101b61222a565b5b60405190808252806020026020018201604052801561104a5781602001602082028036833780820191505090505b50815250600160008573ffffffffffffffffffffffffffffffffffffffff1673ffffffffffffffffffffffffffffffffffffffff16815260200190815260200160002060008201518160000160006101000a81548173ffffffffffffffffffffffffffffffffffffffff021916908373ffffffffffffffffffffffffffffffffffffffff16021790555060208201518160010190816110e99190612aef565b5060408201518160020190816110ff9190612aef565b50606082015181600301556080820151816004019080519060200190611126929190611df0565b50905050505050565b60008060008373ffffffffffffffffffffffffffffffffffffffff1673ffffffffffffffffffffffffffffffffffffffff16815260200190815260200160002060030160009054906101000a900460ff169050919050565b6040518061012001604052808473ffffffffffffffffffffffffffffffffffffffff1681526020018381526020018281526020016001151581526020016000815260200160008152602001600081526020016000815260200160008152506000808573ffffffffffffffffffffffffffffffffffffffff1673ffffffffffffffffffffffffffffffffffffffff16815260200190815260200160002060008201518160000160006101000a81548173ffffffffffffffffffffffffffffffffffffffff021916908373ffffffffffffffffffffffffffffffffffffffff160217905550602082015181600101908161127f9190612aef565b5060408201518160020190816112959190612aef565b5060608201518160030160006101000a81548160ff0219169083151502179055506080820151816004015560a0820151816005015560c0820151816006015560e082015181600701556101008201518160080155905050505050565b6060600380548060200260200160405190810160405280929190818152602001828054801561133f57602002820191906000526020600020905b81548152602001906001019080831161132b575b5050505050905090565b7f000000000000000000000000000000000000000000000000000000000000000081565b6000806000808473ffffffffffffffffffffffffffffffffffffffff1673ffffffffffffffffffffffffffffffffffffffff16815260200190815260200160002060040154036113f2576040517f08c379a00000000000000000000000000000000000000000000000000000000081526004016113e990612c0d565b60405180910390fd5b60006114806000808573ffffffffffffffffffffffffffffffffffffffff1673ffffffffffffffffffffffffffffffffffffffff168152602001908152602001600020600701546000808673ffffffffffffffffffffffffffffffffffffffff1673ffffffffffffffffffffffffffffffffffffffff16815260200190815260200160002060080154611c30565b90506000603c826114919190612c5c565b90508092505050919050565b346000808373ffffffffffffffffffffffffffffffffffffffff1673ffffffffffffffffffffffffffffffffffffffff16815260200190815260200160002060050160008282546114ee9190612c8d565b9250508190555050565b600033905060008060008373ffffffffffffffffffffffffffffffffffffffff1673ffffffffffffffffffffffffffffffffffffffff16815260200190815260200160002060040154905060008060008473ffffffffffffffffffffffffffffffffffffffff1673ffffffffffffffffffffffffffffffffffffffff16815260200190815260200160002060040154036115c7576040517f08c379a00000000000000000000000000000000000000000000000000000000081526004016115be90612c0d565b60405180910390fd5b426000808473ffffffffffffffffffffffffffffffffffffffff1673ffffffffffffffffffffffffffffffffffffffff168152602001908152602001600020600801819055506116178282611c46565b60016000808473ffffffffffffffffffffffffffffffffffffffff1673ffffffffffffffffffffffffffffffffffffffff16815260200190815260200160002060030160006101000a81548160ff02191690831515021790555060008060008473ffffffffffffffffffffffffffffffffffffffff1673ffffffffffffffffffffffffffffffffffffffff1681526020019081526020016000206006018190555060008060008473ffffffffffffffffffffffffffffffffffffffff1673ffffffffffffffffffffffffffffffffffffffff1681526020019081526020016000206004018190555060016002600083815260200190815260200160002060080160006101000a81548160ff0219169083151502179055505050565b600260205280600052604060002060009150905080600001549080600101805461175b9061266d565b80601f01602080910402602001604051908101604052809291908181526020018280546117879061266d565b80156117d45780601f106117a9576101008083540402835291602001916117d4565b820191906000526020600020905b8154815290600101906020018083116117b757829003601f168201915b5050505050908060020180546117e99061266d565b80601f01602080910402602001604051908101604052809291908181526020018280546118159061266d565b80156118625780601f1061183757610100808354040283529160200191611862565b820191906000526020600020905b81548152906001019060200180831161184557829003601f168201915b5050505050908060030180546118779061266d565b80601f01602080910402602001604051908101604052809291908181526020018280546118a39061266d565b80156118f05780601f106118c5576101008083540402835291602001916118f0565b820191906000526020600020905b8154815290600101906020018083116118d357829003601f168201915b5050505050908060040180546119059061266d565b80601f01602080910402602001604051908101604052809291908181526020018280546119319061266d565b801561197e5780601f106119535761010080835404028352916020019161197e565b820191906000526020600020905b81548152906001019060200180831161196157829003601f168201915b5050505050908060050180546119939061266d565b80601f01602080910402602001604051908101604052809291908181526020018280546119bf9061266d565b8015611a0c5780601f106119e157610100808354040283529160200191611a0c565b820191906000526020600020905b8154815290600101906020018083116119ef57829003601f168201915b5050505050908060060154908060070154908060080160009054906101000a900460ff16908060080160019054906101000a900473ffffffffffffffffffffffffffffffffffffffff1690508a565b600033905060008060008373ffffffffffffffffffffffffffffffffffffffff1673ffffffffffffffffffffffffffffffffffffffff168152602001908152602001600020600601546000808473ffffffffffffffffffffffffffffffffffffffff1673ffffffffffffffffffffffffffffffffffffffff16815260200190815260200160002060050154611af091906127cb565b905080831115611b35576040517f08c379a0000000000000000000000000000000000000000000000000000000008152600401611b2c90612710565b60405180910390fd5b60003373ffffffffffffffffffffffffffffffffffffffff166108fc859081150290604051600060405180830381858888f19350505050905080611bae576040517f08c379a0000000000000000000000000000000000000000000000000000000008152600401611ba59061277c565b60405180910390fd5b836000808573ffffffffffffffffffffffffffffffffffffffff1673ffffffffffffffffffffffffffffffffffffffff1681526020019081526020016000206005016000828254611bff91906127cb565b9250508190555050505050565b6000600160046000828254611c219190612c8d565b92505081905550600454905090565b60008282611c3e91906127cb565b905092915050565b6000611c518361136d565b90506000600260008481526020019081526020016000206006015482611c779190612cc1565b9050806000808673ffffffffffffffffffffffffffffffffffffffff1673ffffffffffffffffffffffffffffffffffffffff168152602001908152602001600020600501541015611cfd576040517f08c379a0000000000000000000000000000000000000000000000000000000008152600401611cf490612db3565b60405180910390fd5b806000808673ffffffffffffffffffffffffffffffffffffffff1673ffffffffffffffffffffffffffffffffffffffff1681526020019081526020016000206005016000828254611d4e91906127cb565b9250508190555060006002600085815260200190815260200160002060080160019054906101000a900473ffffffffffffffffffffffffffffffffffffffff16905081600160008373ffffffffffffffffffffffffffffffffffffffff1673ffffffffffffffffffffffffffffffffffffffff1681526020019081526020016000206003016000828254611de29190612c8d565b925050819055505050505050565b828054828255906000526020600020908101928215611e2c579160200282015b82811115611e2b578251825591602001919060010190611e10565b5b509050611e399190611e3d565b5090565b5b80821115611e56576000816000905550600101611e3e565b5090565b6000604051905090565b600080fd5b600080fd5b600073ffffffffffffffffffffffffffffffffffffffff82169050919050565b6000611e9982611e6e565b9050919050565b611ea981611e8e565b8114611eb457600080fd5b50565b600081359050611ec681611ea0565b92915050565b600060208284031215611ee257611ee1611e64565b5b6000611ef084828501611eb7565b91505092915050565b6000611f0482611e6e565b9050919050565b611f1481611ef9565b82525050565b600081519050919050565b600082825260208201905092915050565b60005b83811015611f54578082015181840152602081019050611f39565b60008484015250505050565b6000601f19601f8301169050919050565b6000611f7c82611f1a565b611f868185611f25565b9350611f96818560208601611f36565b611f9f81611f60565b840191505092915050565b6000819050919050565b611fbd81611faa565b82525050565b6000608082019050611fd86000830187611f0b565b8181036020830152611fea8186611f71565b90508181036040830152611ffe8185611f71565b905061200d6060830184611fb4565b95945050505050565b61201f81611faa565b811461202a57600080fd5b50565b60008135905061203c81612016565b92915050565b60006020828403121561205857612057611e64565b5b60006120668482850161202d565b91505092915050565b60008115159050919050565b6120848161206f565b82525050565b6000610120820190506120a0600083018c611f0b565b81810360208301526120b2818b611f71565b905081810360408301526120c6818a611f71565b90506120d5606083018961207b565b6120e26080830188611fb4565b6120ef60a0830187611fb4565b6120fc60c0830186611fb4565b61210960e0830185611fb4565b612117610100830184611fb4565b9a9950505050505050505050565b600060208201905061213a6000830184611fb4565b92915050565b600081519050919050565b600082825260208201905092915050565b6000819050602082019050919050565b61217581611faa565b82525050565b6000612187838361216c565b60208301905092915050565b6000602082019050919050565b60006121ab82612140565b6121b5818561214b565b93506121c08361215c565b8060005b838110156121f15781516121d8888261217b565b97506121e383612193565b9250506001810190506121c4565b5085935050505092915050565b6000602082019050818103600083015261221881846121a0565b905092915050565b600080fd5b600080fd5b7f4e487b7100000000000000000000000000000000000000000000000000000000600052604160045260246000fd5b61226282611f60565b810181811067ffffffffffffffff821117156122815761228061222a565b5b80604052505050565b6000612294611e5a565b90506122a08282612259565b919050565b600067ffffffffffffffff8211156122c0576122bf61222a565b5b6122c982611f60565b9050602081019050919050565b82818337600083830152505050565b60006122f86122f3846122a5565b61228a565b90508281526020810184848401111561231457612313612225565b5b61231f8482856122d6565b509392505050565b600082601f83011261233c5761233b612220565b5b813561234c8482602086016122e5565b91505092915050565b600080600080600080600060e0888a03121561237457612373611e64565b5b600088013567ffffffffffffffff81111561239257612391611e69565b5b61239e8a828b01612327565b975050602088013567ffffffffffffffff8111156123bf576123be611e69565b5b6123cb8a828b01612327565b965050604088013567ffffffffffffffff8111156123ec576123eb611e69565b5b6123f88a828b01612327565b955050606088013567ffffffffffffffff81111561241957612418611e69565b5b6124258a828b01612327565b945050608088013567ffffffffffffffff81111561244657612445611e69565b5b6124528a828b01612327565b93505060a06124638a828b0161202d565b92505060c06124748a828b0161202d565b91505092959891949750929550565b61248c81611ef9565b811461249757600080fd5b50565b6000813590506124a981612483565b92915050565b6000806000606084860312156124c8576124c7611e64565b5b60006124d68682870161249a565b935050602084013567ffffffffffffffff8111156124f7576124f6611e69565b5b61250386828701612327565b925050604084013567ffffffffffffffff81111561252457612523611e69565b5b61253086828701612327565b9150509250925092565b600060208201905061254f600083018461207b565b92915050565b61255e81611e8e565b82525050565b60006020820190506125796000830184612555565b92915050565b600061014082019050612595600083018d611fb4565b81810360208301526125a7818c611f71565b905081810360408301526125bb818b611f71565b905081810360608301526125cf818a611f71565b905081810360808301526125e38189611f71565b905081810360a08301526125f78188611f71565b905061260660c0830187611fb4565b61261360e0830186611fb4565b61262161010083018561207b565b61262f610120830184612555565b9b9a5050505050505050505050565b7f4e487b7100000000000000000000000000000000000000000000000000000000600052602260045260246000fd5b6000600282049050600182168061268557607f821691505b6020821081036126985761269761263e565b5b50919050565b7f596f752063616e74207769746864726177206d6f7265207468616e20796f752060008201527f6861766500000000000000000000000000000000000000000000000000000000602082015250565b60006126fa602483611f25565b91506127058261269e565b604082019050919050565b60006020820190508181036000830152612729816126ed565b9050919050565b7f4661696c656420746f2073656e64204574686572000000000000000000000000600082015250565b6000612766601483611f25565b915061277182612730565b602082019050919050565b6000602082019050818103600083015261279581612759565b9050919050565b7f4e487b7100000000000000000000000000000000000000000000000000000000600052601160045260246000fd5b60006127d682611faa565b91506127e183611faa565b92508282039050818111156127f9576127f861279c565b5b92915050565b7f436172206973206e6f7420617661696c61626c65000000000000000000000000600082015250565b6000612835601483611f25565b9150612840826127ff565b602082019050919050565b6000602082019050818103600083015261286481612828565b9050919050565b7f596f752063616e206e6f742072656e7420617420746869732074696d65000000600082015250565b60006128a1601d83611f25565b91506128ac8261286b565b602082019050919050565b600060208201905081810360008301526128d081612894565b9050919050565b7f796f7572206465706f73697420697320746f6f206c6f77000000000000000000600082015250565b600061290d601783611f25565b9150612918826128d7565b602082019050919050565b6000602082019050818103600083015261293c81612900565b9050919050565b60008190508160005260206000209050919050565b60006020601f8301049050919050565b600082821b905092915050565b6000600883026129a57fffffffffffffffffffffffffffffffffffffffffffffffffffffffffffffffff82612968565b6129af8683612968565b95508019841693508086168417925050509392505050565b6000819050919050565b60006129ec6129e76129e284611faa565b6129c7565b611faa565b9050919050565b6000819050919050565b612a06836129d1565b612a1a612a12826129f3565b848454612975565b825550505050565b600090565b612a2f612a22565b612a3a8184846129fd565b505050565b5b81811015612a5e57612a53600082612a27565b600181019050612a40565b5050565b601f821115612aa357612a7481612943565b612a7d84612958565b81016020851015612a8c578190505b612aa0612a9885612958565b830182612a3f565b50505b505050565b600082821c905092915050565b6000612ac660001984600802612aa8565b1980831691505092915050565b6000612adf8383612ab5565b9150826002028217905092915050565b612af882611f1a565b67ffffffffffffffff811115612b1157612b1061222a565b5b612b1b825461266d565b612b26828285612a62565b600060209050601f831160018114612b595760008415612b47578287015190505b612b518582612ad3565b865550612bb9565b601f198416612b6786612943565b60005b82811015612b8f57848901518255600182019150602085019450602081019050612b6a565b86831015612bac5784890151612ba8601f891682612ab5565b8355505b6001600288020188555050505b505050505050565b7f796f75206861766520746f2072656e7420612063617220666972737400000000600082015250565b6000612bf7601c83611f25565b9150612c0282612bc1565b602082019050919050565b60006020820190508181036000830152612c2681612bea565b9050919050565b7f4e487b7100000000000000000000000000000000000000000000000000000000600052601260045260246000fd5b6000612c6782611faa565b9150612c7283611faa565b925082612c8257612c81612c2d565b5b828204905092915050565b6000612c9882611faa565b9150612ca383611faa565b9250828201905080821115612cbb57612cba61279c565b5b92915050565b6000612ccc82611faa565b9150612cd783611faa565b9250817fffffffffffffffffffffffffffffffffffffffffffffffffffffffffffffffff0483118215151615612d1057612d0f61279c565b5b828202905092915050565b7f596f7520646f6e2774206861766520656e6f756768742066756e647320746f2060008201527f636f766572207061796d656e742e20506c65617365206d616b6520612064657060208201527f6f7369742e000000000000000000000000000000000000000000000000000000604082015250565b6000612d9d604583611f25565b9150612da882612d1b565b606082019050919050565b60006020820190508181036000830152612dcc81612d90565b905091905056fea26469706673582212203446590012a7930f96deb04860f288003d2ae8d47fe91b7bb9a87695d5e2301e64736f6c63430008100033",
  "linkReferences": {},
  "deployedLinkReferences": {}
}