{
  "_format": "hh-sol-artifact-1",
  "contractName": "CarChain",
  "sourceName": "contracts/CarChain.sol",
  "abi": [
    {
      "inputs": [],
      "stateMutability": "nonpayable",
      "type": "constructor"
    },
    {
      "inputs": [
        {
          "internalType": "address",
          "name": "walletAddress",
          "type": "address"
        }
      ],
      "name": "Deposit",
      "outputs": [],
      "stateMutability": "payable",
      "type": "function"
    },
    {
      "inputs": [
        {
          "internalType": "string",
          "name": "make",
          "type": "string"
        },
        {
          "internalType": "string",
          "name": "model",
          "type": "string"
        },
        {
          "internalType": "string",
          "name": "year",
          "type": "string"
        },
        {
          "internalType": "string",
          "name": "color",
          "type": "string"
        },
        {
          "internalType": "string",
          "name": "licensePlate",
          "type": "string"
        },
        {
          "internalType": "uint256",
          "name": "price",
          "type": "uint256"
        },
        {
          "internalType": "uint256",
          "name": "minDeposit",
          "type": "uint256"
        },
        {
          "internalType": "bool",
          "name": "available",
          "type": "bool"
        }
      ],
      "name": "addCar",
      "outputs": [],
      "stateMutability": "nonpayable",
      "type": "function"
    },
    {
      "inputs": [
        {
          "internalType": "address payable",
          "name": "walletAddress",
          "type": "address"
        },
        {
          "internalType": "string",
          "name": "firstName",
          "type": "string"
        },
        {
          "internalType": "string",
          "name": "lastName",
          "type": "string"
        }
      ],
      "name": "addOwner",
      "outputs": [],
      "stateMutability": "nonpayable",
      "type": "function"
    },
    {
      "inputs": [
        {
          "internalType": "address payable",
          "name": "walletAddress",
          "type": "address"
        },
        {
          "internalType": "string",
          "name": "firstName",
          "type": "string"
        },
        {
          "internalType": "string",
          "name": "lastName",
          "type": "string"
        }
      ],
      "name": "addRenter",
      "outputs": [],
      "stateMutability": "nonpayable",
      "type": "function"
    },
    {
      "inputs": [
        {
          "internalType": "address",
          "name": "walletAddress",
          "type": "address"
        }
      ],
      "name": "balanceOfRenter",
      "outputs": [
        {
          "internalType": "uint256",
          "name": "",
          "type": "uint256"
        }
      ],
      "stateMutability": "view",
      "type": "function"
    },
    {
      "inputs": [
        {
          "internalType": "address",
          "name": "walletAddress",
          "type": "address"
        }
      ],
      "name": "canRentCar",
      "outputs": [
        {
          "internalType": "bool",
          "name": "",
          "type": "bool"
        }
      ],
      "stateMutability": "view",
      "type": "function"
    },
    {
      "inputs": [
        {
          "internalType": "uint256",
          "name": "",
          "type": "uint256"
        }
      ],
      "name": "carIds",
      "outputs": [
        {
          "internalType": "uint256",
          "name": "",
          "type": "uint256"
        }
      ],
      "stateMutability": "view",
      "type": "function"
    },
    {
      "inputs": [
        {
          "internalType": "uint256",
          "name": "",
          "type": "uint256"
        }
      ],
      "name": "cars",
      "outputs": [
        {
          "internalType": "uint256",
          "name": "id",
          "type": "uint256"
        },
        {
          "internalType": "string",
          "name": "make",
          "type": "string"
        },
        {
          "internalType": "string",
          "name": "model",
          "type": "string"
        },
        {
          "internalType": "string",
          "name": "year",
          "type": "string"
        },
        {
          "internalType": "string",
          "name": "color",
          "type": "string"
        },
        {
          "internalType": "string",
          "name": "licensePlate",
          "type": "string"
        },
        {
          "internalType": "uint256",
          "name": "price",
          "type": "uint256"
        },
        {
          "internalType": "uint256",
          "name": "minDeposit",
          "type": "uint256"
        },
        {
          "internalType": "bool",
          "name": "available",
          "type": "bool"
        }
      ],
      "stateMutability": "view",
      "type": "function"
    },
    {
      "inputs": [],
      "name": "dropOff",
      "outputs": [],
      "stateMutability": "nonpayable",
      "type": "function"
    },
    {
      "inputs": [
        {
          "internalType": "uint256",
          "name": "carId",
          "type": "uint256"
        }
      ],
      "name": "getCar",
      "outputs": [
        {
          "components": [
            {
              "internalType": "uint256",
              "name": "id",
              "type": "uint256"
            },
            {
              "internalType": "string",
              "name": "make",
              "type": "string"
            },
            {
              "internalType": "string",
              "name": "model",
              "type": "string"
            },
            {
              "internalType": "string",
              "name": "year",
              "type": "string"
            },
            {
              "internalType": "string",
              "name": "color",
              "type": "string"
            },
            {
              "internalType": "string",
              "name": "licensePlate",
              "type": "string"
            },
            {
              "internalType": "uint256",
              "name": "price",
              "type": "uint256"
            },
            {
              "internalType": "uint256",
              "name": "minDeposit",
              "type": "uint256"
            },
            {
              "internalType": "bool",
              "name": "available",
              "type": "bool"
            }
          ],
          "internalType": "struct CarChain.Car",
          "name": "",
          "type": "tuple"
        }
      ],
      "stateMutability": "view",
      "type": "function"
    },
    {
      "inputs": [],
      "name": "getContractBalance",
      "outputs": [
        {
          "internalType": "uint256",
          "name": "",
          "type": "uint256"
        }
      ],
      "stateMutability": "view",
      "type": "function"
    },
    {
      "inputs": [
        {
          "internalType": "address",
          "name": "ownerAddress",
          "type": "address"
        }
      ],
      "name": "getOwnerBalance",
      "outputs": [
        {
          "internalType": "uint256",
          "name": "",
          "type": "uint256"
        }
      ],
      "stateMutability": "view",
      "type": "function"
    },
    {
      "inputs": [
        {
          "internalType": "address",
          "name": "ownerAddress",
          "type": "address"
        }
      ],
      "name": "getOwnerCars",
      "outputs": [
        {
          "internalType": "uint256[]",
          "name": "",
          "type": "uint256[]"
        }
      ],
      "stateMutability": "view",
      "type": "function"
    },
    {
      "inputs": [
        {
          "internalType": "address",
          "name": "walletAddress",
          "type": "address"
        }
      ],
      "name": "getRentDurationMinutes",
      "outputs": [
        {
          "internalType": "uint256",
          "name": "",
          "type": "uint256"
        }
      ],
      "stateMutability": "view",
      "type": "function"
    },
    {
      "inputs": [],
      "name": "i_owner",
      "outputs": [
        {
          "internalType": "address",
          "name": "",
          "type": "address"
        }
      ],
      "stateMutability": "view",
      "type": "function"
    },
    {
      "inputs": [],
      "name": "ownerWithdraw",
      "outputs": [],
      "stateMutability": "payable",
      "type": "function"
    },
    {
      "inputs": [
        {
          "internalType": "address",
          "name": "",
          "type": "address"
        }
      ],
      "name": "owners",
      "outputs": [
        {
          "internalType": "address payable",
          "name": "walletAddress",
          "type": "address"
        },
        {
          "internalType": "string",
          "name": "firstName",
          "type": "string"
        },
        {
          "internalType": "string",
          "name": "lastName",
          "type": "string"
        },
        {
          "internalType": "uint256",
          "name": "balance",
          "type": "uint256"
        }
      ],
      "stateMutability": "view",
      "type": "function"
    },
    {
      "inputs": [
        {
          "internalType": "uint256",
          "name": "carId",
          "type": "uint256"
        }
      ],
      "name": "pickUp",
      "outputs": [],
      "stateMutability": "nonpayable",
      "type": "function"
    },
    {
      "inputs": [],
      "name": "renterWithdraw",
      "outputs": [],
      "stateMutability": "payable",
      "type": "function"
    },
    {
      "inputs": [
        {
          "internalType": "address",
          "name": "",
          "type": "address"
        }
      ],
      "name": "renters",
      "outputs": [
        {
          "internalType": "address payable",
          "name": "walletAddress",
          "type": "address"
        },
        {
          "internalType": "string",
          "name": "firstName",
          "type": "string"
        },
        {
          "internalType": "string",
          "name": "lastName",
          "type": "string"
        },
        {
          "internalType": "bool",
          "name": "canRent",
          "type": "bool"
        },
        {
          "internalType": "uint256",
          "name": "rentedCarId",
          "type": "uint256"
        },
        {
          "internalType": "uint256",
          "name": "balance",
          "type": "uint256"
        },
        {
          "internalType": "uint256",
          "name": "reservedBalance",
          "type": "uint256"
        },
        {
          "internalType": "uint256",
          "name": "rentStart",
          "type": "uint256"
        },
        {
          "internalType": "uint256",
          "name": "rentEnd",
          "type": "uint256"
        }
      ],
      "stateMutability": "view",
      "type": "function"
    }
  ],
  "bytecode": "0x60a060405234801561001057600080fd5b503373ffffffffffffffffffffffffffffffffffffffff1660808173ffffffffffffffffffffffffffffffffffffffff16815250506080516131cd61006060003960006117bf01526131cd6000f3fe60806040526004361061011f5760003560e01c8063aad1b617116100a0578063d505f28711610064578063d505f287146103ed578063dba6335f14610416578063e9fd63bb14610441578063f37f8c6e1461047e578063f7746e36146104955761011f565b8063aad1b61714610317578063ae1885ee14610354578063af6143d31461037d578063b6e6f1ec146103ba578063cac5122c146103e35761011f565b80636ff1ed71116100e75780636ff1ed711461021b578063740c0f5c146102445780637fcf440a146102815780638ce0bd46146102be578063914fe309146102da5761011f565b8063022914a7146101245780634311de8f146101645780635e8be1901461016e578063644a1370146101ab5780636f9fb98a146101f0575b600080fd5b34801561013057600080fd5b5061014b600480360381019061014691906120d6565b6104da565b60405161015b94939291906121cd565b60405180910390f35b61016c61063a565b005b34801561017a57600080fd5b506101956004803603810190610190919061224c565b61078f565b6040516101a291906123ce565b60405180910390f35b3480156101b757600080fd5b506101d260048036038101906101cd91906120d6565b610ad0565b6040516101e7999897969594939291906123ff565b60405180910390f35b3480156101fc57600080fd5b50610205610c5b565b604051610212919061249a565b60405180910390f35b34801561022757600080fd5b50610242600480360381019061023d919061224c565b610c63565b005b34801561025057600080fd5b5061026b6004803603810190610266919061224c565b610f76565b604051610278919061249a565b60405180910390f35b34801561028d57600080fd5b506102a860048036038101906102a391906120d6565b610f9a565b6040516102b5919061249a565b60405180910390f35b6102d860048036038101906102d391906120d6565b610fe6565b005b3480156102e657600080fd5b5061030160048036038101906102fc91906120d6565b611041565b60405161030e9190612564565b60405180910390f35b34801561032357600080fd5b5061033e600480360381019061033991906120d6565b6110db565b60405161034b919061249a565b60405180910390f35b34801561036057600080fd5b5061037b600480360381019061037691906126e7565b611126565b005b34801561038957600080fd5b506103a4600480360381019061039f91906120d6565b61128e565b6040516103b19190612772565b60405180910390f35b3480156103c657600080fd5b506103e160048036038101906103dc91906126e7565b6112e6565b005b6103eb611450565b005b3480156103f957600080fd5b50610414600480360381019061040f91906127b9565b611600565b005b34801561042257600080fd5b5061042b6117bd565b604051610438919061290a565b60405180910390f35b34801561044d57600080fd5b50610468600480360381019061046391906120d6565b6117e1565b604051610475919061249a565b60405180910390f35b34801561048a57600080fd5b50610493611911565b005b3480156104a157600080fd5b506104bc60048036038101906104b7919061224c565b611b4b565b6040516104d199989796959493929190612925565b60405180910390f35b60016020528060005260406000206000915090508060000160009054906101000a900473ffffffffffffffffffffffffffffffffffffffff169080600101805461052390612a04565b80601f016020809104026020016040519081016040528092919081815260200182805461054f90612a04565b801561059c5780601f106105715761010080835404028352916020019161059c565b820191906000526020600020905b81548152906001019060200180831161057f57829003601f168201915b5050505050908060020180546105b190612a04565b80601f01602080910402602001604051908101604052809291908181526020018280546105dd90612a04565b801561062a5780601f106105ff5761010080835404028352916020019161062a565b820191906000526020600020905b81548152906001019060200180831161060d57829003601f168201915b5050505050908060030154905084565b60003390506000600160008373ffffffffffffffffffffffffffffffffffffffff1673ffffffffffffffffffffffffffffffffffffffff168152602001908152602001600020600301549050600081116106c9576040517f08c379a00000000000000000000000000000000000000000000000000000000081526004016106c090612a81565b60405180910390fd5b60003373ffffffffffffffffffffffffffffffffffffffff166108fc839081150290604051600060405180830381858888f19350505050905080610742576040517f08c379a000000000000000000000000000000000000000000000000000000000815260040161073990612aed565b60405180910390fd5b6000600160008573ffffffffffffffffffffffffffffffffffffffff1673ffffffffffffffffffffffffffffffffffffffff16815260200190815260200160002060030181905550505050565b610797611fac565b6002600083815260200190815260200160002060405180610120016040529081600082015481526020016001820180546107d090612a04565b80601f01602080910402602001604051908101604052809291908181526020018280546107fc90612a04565b80156108495780601f1061081e57610100808354040283529160200191610849565b820191906000526020600020905b81548152906001019060200180831161082c57829003601f168201915b5050505050815260200160028201805461086290612a04565b80601f016020809104026020016040519081016040528092919081815260200182805461088e90612a04565b80156108db5780601f106108b0576101008083540402835291602001916108db565b820191906000526020600020905b8154815290600101906020018083116108be57829003601f168201915b505050505081526020016003820180546108f490612a04565b80601f016020809104026020016040519081016040528092919081815260200182805461092090612a04565b801561096d5780601f106109425761010080835404028352916020019161096d565b820191906000526020600020905b81548152906001019060200180831161095057829003601f168201915b5050505050815260200160048201805461098690612a04565b80601f01602080910402602001604051908101604052809291908181526020018280546109b290612a04565b80156109ff5780601f106109d4576101008083540402835291602001916109ff565b820191906000526020600020905b8154815290600101906020018083116109e257829003601f168201915b50505050508152602001600582018054610a1890612a04565b80601f0160208091040260200160405190810160405280929190818152602001828054610a4490612a04565b8015610a915780601f10610a6657610100808354040283529160200191610a91565b820191906000526020600020905b815481529060010190602001808311610a7457829003601f168201915b5050505050815260200160068201548152602001600782015481526020016008820160009054906101000a900460ff1615151515815250509050919050565b60006020528060005260406000206000915090508060000160009054906101000a900473ffffffffffffffffffffffffffffffffffffffff1690806001018054610b1990612a04565b80601f0160208091040260200160405190810160405280929190818152602001828054610b4590612a04565b8015610b925780601f10610b6757610100808354040283529160200191610b92565b820191906000526020600020905b815481529060010190602001808311610b7557829003601f168201915b505050505090806002018054610ba790612a04565b80601f0160208091040260200160405190810160405280929190818152602001828054610bd390612a04565b8015610c205780601f10610bf557610100808354040283529160200191610c20565b820191906000526020600020905b815481529060010190602001808311610c0357829003601f168201915b5050505050908060030160009054906101000a900460ff16908060040154908060050154908060060154908060070154908060080154905089565b600047905090565b6000339050600115156002600084815260200190815260200160002060080160009054906101000a900460ff16151514610cd2576040517f08c379a0000000000000000000000000000000000000000000000000000000008152600401610cc990612b59565b60405180910390fd5b600115156000808373ffffffffffffffffffffffffffffffffffffffff1673ffffffffffffffffffffffffffffffffffffffff16815260200190815260200160002060030160009054906101000a900460ff16151514610d67576040517f08c379a0000000000000000000000000000000000000000000000000000000008152600401610d5e90612bc5565b60405180910390fd5b60026000838152602001908152602001600020600701546000808373ffffffffffffffffffffffffffffffffffffffff1673ffffffffffffffffffffffffffffffffffffffff168152602001908152602001600020600501541015610e01576040517f08c379a0000000000000000000000000000000000000000000000000000000008152600401610df890612c31565b60405180910390fd5b426000808373ffffffffffffffffffffffffffffffffffffffff1673ffffffffffffffffffffffffffffffffffffffff1681526020019081526020016000206007018190555060008060008373ffffffffffffffffffffffffffffffffffffffff1673ffffffffffffffffffffffffffffffffffffffff16815260200190815260200160002060030160006101000a81548160ff021916908315150217905550816000808373ffffffffffffffffffffffffffffffffffffffff1673ffffffffffffffffffffffffffffffffffffffff1681526020019081526020016000206004018190555060026000838152602001908152602001600020600701546000808373ffffffffffffffffffffffffffffffffffffffff1673ffffffffffffffffffffffffffffffffffffffff1681526020019081526020016000206006018190555060006002600084815260200190815260200160002060080160006101000a81548160ff0219169083151502179055505050565b60038181548110610f8657600080fd5b906000526020600020016000915090505481565b6000600160008373ffffffffffffffffffffffffffffffffffffffff1673ffffffffffffffffffffffffffffffffffffffff168152602001908152602001600020600301549050919050565b346000808373ffffffffffffffffffffffffffffffffffffffff1673ffffffffffffffffffffffffffffffffffffffff16815260200190815260200160002060050160008282546110379190612c80565b9250508190555050565b6060600160008373ffffffffffffffffffffffffffffffffffffffff1673ffffffffffffffffffffffffffffffffffffffff1681526020019081526020016000206004018054806020026020016040519081016040528092919081815260200182805480156110cf57602002820191906000526020600020905b8154815260200190600101908083116110bb575b50505050509050919050565b60008060008373ffffffffffffffffffffffffffffffffffffffff1673ffffffffffffffffffffffffffffffffffffffff168152602001908152602001600020600501549050919050565b6040518060a001604052808473ffffffffffffffffffffffffffffffffffffffff16815260200183815260200182815260200160008152602001600067ffffffffffffffff81111561117b5761117a6125bc565b5b6040519080825280602002602001820160405280156111a95781602001602082028036833780820191505090505b50815250600160008573ffffffffffffffffffffffffffffffffffffffff1673ffffffffffffffffffffffffffffffffffffffff16815260200190815260200160002060008201518160000160006101000a81548173ffffffffffffffffffffffffffffffffffffffff021916908373ffffffffffffffffffffffffffffffffffffffff16021790555060208201518160010190816112489190612e60565b50604082015181600201908161125e9190612e60565b50606082015181600301556080820151816004019080519060200190611285929190611ffa565b50905050505050565b60008060008373ffffffffffffffffffffffffffffffffffffffff1673ffffffffffffffffffffffffffffffffffffffff16815260200190815260200160002060030160009054906101000a900460ff169050919050565b6040518061012001604052808473ffffffffffffffffffffffffffffffffffffffff1681526020018381526020018281526020016001151581526020016000815260200160008152602001600081526020016000815260200160008152506000808573ffffffffffffffffffffffffffffffffffffffff1673ffffffffffffffffffffffffffffffffffffffff16815260200190815260200160002060008201518160000160006101000a81548173ffffffffffffffffffffffffffffffffffffffff021916908373ffffffffffffffffffffffffffffffffffffffff16021790555060208201518160010190816113de9190612e60565b5060408201518160020190816113f49190612e60565b5060608201518160030160006101000a81548160ff0219169083151502179055506080820151816004015560a0820151816005015560c0820151816006015560e082015181600701556101008201518160080155905050505050565b600033905060008060008373ffffffffffffffffffffffffffffffffffffffff1673ffffffffffffffffffffffffffffffffffffffff168152602001908152602001600020600601546000808473ffffffffffffffffffffffffffffffffffffffff1673ffffffffffffffffffffffffffffffffffffffff168152602001908152602001600020600501546114e59190612f32565b90506000811161152a576040517f08c379a000000000000000000000000000000000000000000000000000000000815260040161152190612a81565b60405180910390fd5b60003373ffffffffffffffffffffffffffffffffffffffff166108fc839081150290604051600060405180830381858888f193505050509050806115a3576040517f08c379a000000000000000000000000000000000000000000000000000000000815260040161159a90612aed565b60405180910390fd5b816000808573ffffffffffffffffffffffffffffffffffffffff1673ffffffffffffffffffffffffffffffffffffffff16815260200190815260200160002060050160008282546115f49190612f32565b92505081905550505050565b600061160b85611e4e565b9050600033905060405180610120016040528061162788611e4e565b81526020018b81526020018a81526020018981526020018881526020018781526020018681526020018581526020018415158152506002600084815260200190815260200160002060008201518160000155602082015181600101908161168e9190612e60565b5060408201518160020190816116a49190612e60565b5060608201518160030190816116ba9190612e60565b5060808201518160040190816116d09190612e60565b5060a08201518160050190816116e69190612e60565b5060c0820151816006015560e082015181600701556101008201518160080160006101000a81548160ff021916908315150217905550905050600160008273ffffffffffffffffffffffffffffffffffffffff1673ffffffffffffffffffffffffffffffffffffffff168152602001908152602001600020600401829080600181540180825580915050600190039060005260206000200160009091909190915055600382908060018154018082558091505060019003906000526020600020016000909190919091505550505050505050505050565b7f000000000000000000000000000000000000000000000000000000000000000081565b6000806000808473ffffffffffffffffffffffffffffffffffffffff1673ffffffffffffffffffffffffffffffffffffffff1681526020019081526020016000206004015403611866576040517f08c379a000000000000000000000000000000000000000000000000000000000815260040161185d90612fb2565b60405180910390fd5b60006118f46000808573ffffffffffffffffffffffffffffffffffffffff1673ffffffffffffffffffffffffffffffffffffffff168152602001908152602001600020600701546000808673ffffffffffffffffffffffffffffffffffffffff1673ffffffffffffffffffffffffffffffffffffffff16815260200190815260200160002060080154611e81565b90506000603c826119059190613001565b90508092505050919050565b600033905060008060008373ffffffffffffffffffffffffffffffffffffffff1673ffffffffffffffffffffffffffffffffffffffff16815260200190815260200160002060040154905060008060008473ffffffffffffffffffffffffffffffffffffffff1673ffffffffffffffffffffffffffffffffffffffff16815260200190815260200160002060040154036119e0576040517f08c379a00000000000000000000000000000000000000000000000000000000081526004016119d790612fb2565b60405180910390fd5b6119ea8282611e97565b60016000808473ffffffffffffffffffffffffffffffffffffffff1673ffffffffffffffffffffffffffffffffffffffff16815260200190815260200160002060030160006101000a81548160ff02191690831515021790555060008060008473ffffffffffffffffffffffffffffffffffffffff1673ffffffffffffffffffffffffffffffffffffffff1681526020019081526020016000206006018190555060008060008473ffffffffffffffffffffffffffffffffffffffff1673ffffffffffffffffffffffffffffffffffffffff1681526020019081526020016000206004018190555060016002600083815260200190815260200160002060080160006101000a81548160ff021916908315150217905550426000808473ffffffffffffffffffffffffffffffffffffffff1673ffffffffffffffffffffffffffffffffffffffff168152602001908152602001600020600801819055505050565b6002602052806000526040600020600091509050806000015490806001018054611b7490612a04565b80601f0160208091040260200160405190810160405280929190818152602001828054611ba090612a04565b8015611bed5780601f10611bc257610100808354040283529160200191611bed565b820191906000526020600020905b815481529060010190602001808311611bd057829003601f168201915b505050505090806002018054611c0290612a04565b80601f0160208091040260200160405190810160405280929190818152602001828054611c2e90612a04565b8015611c7b5780601f10611c5057610100808354040283529160200191611c7b565b820191906000526020600020905b815481529060010190602001808311611c5e57829003601f168201915b505050505090806003018054611c9090612a04565b80601f0160208091040260200160405190810160405280929190818152602001828054611cbc90612a04565b8015611d095780601f10611cde57610100808354040283529160200191611d09565b820191906000526020600020905b815481529060010190602001808311611cec57829003601f168201915b505050505090806004018054611d1e90612a04565b80601f0160208091040260200160405190810160405280929190818152602001828054611d4a90612a04565b8015611d975780601f10611d6c57610100808354040283529160200191611d97565b820191906000526020600020905b815481529060010190602001808311611d7a57829003601f168201915b505050505090806005018054611dac90612a04565b80601f0160208091040260200160405190810160405280929190818152602001828054611dd890612a04565b8015611e255780601f10611dfa57610100808354040283529160200191611e25565b820191906000526020600020905b815481529060010190602001808311611e0857829003601f168201915b5050505050908060060154908060070154908060080160009054906101000a900460ff16905089565b600081604051602001611e61919061306e565b6040516020818303038152906040528051906020012060001c9050919050565b60008282611e8f9190612f32565b905092915050565b6000611ea2836117e1565b90506000600260008481526020019081526020016000206006015482611ec89190613085565b9050806000808673ffffffffffffffffffffffffffffffffffffffff1673ffffffffffffffffffffffffffffffffffffffff168152602001908152602001600020600501541015611f4e576040517f08c379a0000000000000000000000000000000000000000000000000000000008152600401611f4590613177565b60405180910390fd5b806000808673ffffffffffffffffffffffffffffffffffffffff1673ffffffffffffffffffffffffffffffffffffffff1681526020019081526020016000206005016000828254611f9f9190612f32565b9250508190555050505050565b60405180610120016040528060008152602001606081526020016060815260200160608152602001606081526020016060815260200160008152602001600081526020016000151581525090565b828054828255906000526020600020908101928215612036579160200282015b8281111561203557825182559160200191906001019061201a565b5b5090506120439190612047565b5090565b5b80821115612060576000816000905550600101612048565b5090565b6000604051905090565b600080fd5b600080fd5b600073ffffffffffffffffffffffffffffffffffffffff82169050919050565b60006120a382612078565b9050919050565b6120b381612098565b81146120be57600080fd5b50565b6000813590506120d0816120aa565b92915050565b6000602082840312156120ec576120eb61206e565b5b60006120fa848285016120c1565b91505092915050565b600061210e82612078565b9050919050565b61211e81612103565b82525050565b600081519050919050565b600082825260208201905092915050565b60005b8381101561215e578082015181840152602081019050612143565b60008484015250505050565b6000601f19601f8301169050919050565b600061218682612124565b612190818561212f565b93506121a0818560208601612140565b6121a98161216a565b840191505092915050565b6000819050919050565b6121c7816121b4565b82525050565b60006080820190506121e26000830187612115565b81810360208301526121f4818661217b565b90508181036040830152612208818561217b565b905061221760608301846121be565b95945050505050565b612229816121b4565b811461223457600080fd5b50565b60008135905061224681612220565b92915050565b6000602082840312156122625761226161206e565b5b600061227084828501612237565b91505092915050565b612282816121b4565b82525050565b600082825260208201905092915050565b60006122a482612124565b6122ae8185612288565b93506122be818560208601612140565b6122c78161216a565b840191505092915050565b60008115159050919050565b6122e7816122d2565b82525050565b6000610120830160008301516123066000860182612279565b506020830151848203602086015261231e8282612299565b915050604083015184820360408601526123388282612299565b915050606083015184820360608601526123528282612299565b9150506080830151848203608086015261236c8282612299565b91505060a083015184820360a08601526123868282612299565b91505060c083015161239b60c0860182612279565b5060e08301516123ae60e0860182612279565b506101008301516123c36101008601826122de565b508091505092915050565b600060208201905081810360008301526123e881846122ed565b905092915050565b6123f9816122d2565b82525050565b600061012082019050612415600083018c612115565b8181036020830152612427818b61217b565b9050818103604083015261243b818a61217b565b905061244a60608301896123f0565b61245760808301886121be565b61246460a08301876121be565b61247160c08301866121be565b61247e60e08301856121be565b61248c6101008301846121be565b9a9950505050505050505050565b60006020820190506124af60008301846121be565b92915050565b600081519050919050565b600082825260208201905092915050565b6000819050602082019050919050565b60006124ed8383612279565b60208301905092915050565b6000602082019050919050565b6000612511826124b5565b61251b81856124c0565b9350612526836124d1565b8060005b8381101561255757815161253e88826124e1565b9750612549836124f9565b92505060018101905061252a565b5085935050505092915050565b6000602082019050818103600083015261257e8184612506565b905092915050565b61258f81612103565b811461259a57600080fd5b50565b6000813590506125ac81612586565b92915050565b600080fd5b600080fd5b7f4e487b7100000000000000000000000000000000000000000000000000000000600052604160045260246000fd5b6125f48261216a565b810181811067ffffffffffffffff82111715612613576126126125bc565b5b80604052505050565b6000612626612064565b905061263282826125eb565b919050565b600067ffffffffffffffff821115612652576126516125bc565b5b61265b8261216a565b9050602081019050919050565b82818337600083830152505050565b600061268a61268584612637565b61261c565b9050828152602081018484840111156126a6576126a56125b7565b5b6126b1848285612668565b509392505050565b600082601f8301126126ce576126cd6125b2565b5b81356126de848260208601612677565b91505092915050565b600080600060608486031215612700576126ff61206e565b5b600061270e8682870161259d565b935050602084013567ffffffffffffffff81111561272f5761272e612073565b5b61273b868287016126b9565b925050604084013567ffffffffffffffff81111561275c5761275b612073565b5b612768868287016126b9565b9150509250925092565b600060208201905061278760008301846123f0565b92915050565b612796816122d2565b81146127a157600080fd5b50565b6000813590506127b38161278d565b92915050565b600080600080600080600080610100898b0312156127da576127d961206e565b5b600089013567ffffffffffffffff8111156127f8576127f7612073565b5b6128048b828c016126b9565b985050602089013567ffffffffffffffff81111561282557612824612073565b5b6128318b828c016126b9565b975050604089013567ffffffffffffffff81111561285257612851612073565b5b61285e8b828c016126b9565b965050606089013567ffffffffffffffff81111561287f5761287e612073565b5b61288b8b828c016126b9565b955050608089013567ffffffffffffffff8111156128ac576128ab612073565b5b6128b88b828c016126b9565b94505060a06128c98b828c01612237565b93505060c06128da8b828c01612237565b92505060e06128eb8b828c016127a4565b9150509295985092959890939650565b61290481612098565b82525050565b600060208201905061291f60008301846128fb565b92915050565b60006101208201905061293b600083018c6121be565b818103602083015261294d818b61217b565b90508181036040830152612961818a61217b565b90508181036060830152612975818961217b565b90508181036080830152612989818861217b565b905081810360a083015261299d818761217b565b90506129ac60c08301866121be565b6129b960e08301856121be565b6129c76101008301846123f0565b9a9950505050505050505050565b7f4e487b7100000000000000000000000000000000000000000000000000000000600052602260045260246000fd5b60006002820490506001821680612a1c57607f821691505b602082108103612a2f57612a2e6129d5565b5b50919050565b7f596f752068617665206e6f206d6f6e657920746f207769746864726177000000600082015250565b6000612a6b601d8361212f565b9150612a7682612a35565b602082019050919050565b60006020820190508181036000830152612a9a81612a5e565b9050919050565b7f4661696c656420746f2073656e64204574686572000000000000000000000000600082015250565b6000612ad760148361212f565b9150612ae282612aa1565b602082019050919050565b60006020820190508181036000830152612b0681612aca565b9050919050565b7f436172206973206e6f7420617661696c61626c65000000000000000000000000600082015250565b6000612b4360148361212f565b9150612b4e82612b0d565b602082019050919050565b60006020820190508181036000830152612b7281612b36565b9050919050565b7f596f752063616e206e6f742072656e7420617420746869732074696d65000000600082015250565b6000612baf601d8361212f565b9150612bba82612b79565b602082019050919050565b60006020820190508181036000830152612bde81612ba2565b9050919050565b7f796f7572206465706f73697420697320746f6f206c6f77000000000000000000600082015250565b6000612c1b60178361212f565b9150612c2682612be5565b602082019050919050565b60006020820190508181036000830152612c4a81612c0e565b9050919050565b7f4e487b7100000000000000000000000000000000000000000000000000000000600052601160045260246000fd5b6000612c8b826121b4565b9150612c96836121b4565b9250828201905080821115612cae57612cad612c51565b5b92915050565b60008190508160005260206000209050919050565b60006020601f8301049050919050565b600082821b905092915050565b600060088302612d167fffffffffffffffffffffffffffffffffffffffffffffffffffffffffffffffff82612cd9565b612d208683612cd9565b95508019841693508086168417925050509392505050565b6000819050919050565b6000612d5d612d58612d53846121b4565b612d38565b6121b4565b9050919050565b6000819050919050565b612d7783612d42565b612d8b612d8382612d64565b848454612ce6565b825550505050565b600090565b612da0612d93565b612dab818484612d6e565b505050565b5b81811015612dcf57612dc4600082612d98565b600181019050612db1565b5050565b601f821115612e1457612de581612cb4565b612dee84612cc9565b81016020851015612dfd578190505b612e11612e0985612cc9565b830182612db0565b50505b505050565b600082821c905092915050565b6000612e3760001984600802612e19565b1980831691505092915050565b6000612e508383612e26565b9150826002028217905092915050565b612e6982612124565b67ffffffffffffffff811115612e8257612e816125bc565b5b612e8c8254612a04565b612e97828285612dd3565b600060209050601f831160018114612eca5760008415612eb8578287015190505b612ec28582612e44565b865550612f2a565b601f198416612ed886612cb4565b60005b82811015612f0057848901518255600182019150602085019450602081019050612edb565b86831015612f1d5784890151612f19601f891682612e26565b8355505b6001600288020188555050505b505050505050565b6000612f3d826121b4565b9150612f48836121b4565b9250828203905081811115612f6057612f5f612c51565b5b92915050565b7f796f75206861766520746f2072656e7420612063617220666972737400000000600082015250565b6000612f9c601c8361212f565b9150612fa782612f66565b602082019050919050565b60006020820190508181036000830152612fcb81612f8f565b9050919050565b7f4e487b7100000000000000000000000000000000000000000000000000000000600052601260045260246000fd5b600061300c826121b4565b9150613017836121b4565b92508261302757613026612fd2565b5b828204905092915050565b600081905092915050565b600061304882612124565b6130528185613032565b9350613062818560208601612140565b80840191505092915050565b600061307a828461303d565b915081905092915050565b6000613090826121b4565b915061309b836121b4565b9250817fffffffffffffffffffffffffffffffffffffffffffffffffffffffffffffffff04831182151516156130d4576130d3612c51565b5b828202905092915050565b7f596f7520646f6e2774206861766520656e6f756768742066756e647320746f2060008201527f636f766572207061796d656e742e20506c65617365206d616b6520612064657060208201527f6f7369742e000000000000000000000000000000000000000000000000000000604082015250565b600061316160458361212f565b915061316c826130df565b606082019050919050565b6000602082019050818103600083015261319081613154565b905091905056fea2646970667358221220d460ae8b076f6b8f6baf0c7123825b5d8bbbe4b9114f5ff0b6399376c016261c64736f6c63430008100033",
  "linkReferences": {},
  "deployedLinkReferences": {}
}