{
  "_format": "hh-sol-artifact-1",
  "contractName": "CarChain",
  "sourceName": "contracts/CarChain.sol",
  "abi": [
    {
      "inputs": [],
      "stateMutability": "nonpayable",
      "type": "constructor"
    },
    {
      "inputs": [
        {
          "internalType": "address",
          "name": "walletAddress",
          "type": "address"
        }
      ],
      "name": "Deposit",
      "outputs": [],
      "stateMutability": "payable",
      "type": "function"
    },
    {
      "inputs": [
        {
          "internalType": "string",
          "name": "make",
          "type": "string"
        },
        {
          "internalType": "string",
          "name": "model",
          "type": "string"
        },
        {
          "internalType": "string",
          "name": "year",
          "type": "string"
        },
        {
          "internalType": "string",
          "name": "color",
          "type": "string"
        },
        {
          "internalType": "string",
          "name": "licensePlate",
          "type": "string"
        },
        {
          "internalType": "uint256",
          "name": "price",
          "type": "uint256"
        },
        {
          "internalType": "uint256",
          "name": "minDeposit",
          "type": "uint256"
        }
      ],
      "name": "addCar",
      "outputs": [],
      "stateMutability": "nonpayable",
      "type": "function"
    },
    {
      "inputs": [
        {
          "internalType": "address payable",
          "name": "walletAddress",
          "type": "address"
        },
        {
          "internalType": "string",
          "name": "firstName",
          "type": "string"
        },
        {
          "internalType": "string",
          "name": "lastName",
          "type": "string"
        }
      ],
      "name": "addOwner",
      "outputs": [],
      "stateMutability": "nonpayable",
      "type": "function"
    },
    {
      "inputs": [
        {
          "internalType": "address payable",
          "name": "walletAddress",
          "type": "address"
        },
        {
          "internalType": "string",
          "name": "firstName",
          "type": "string"
        },
        {
          "internalType": "string",
          "name": "lastName",
          "type": "string"
        }
      ],
      "name": "addRenter",
      "outputs": [],
      "stateMutability": "nonpayable",
      "type": "function"
    },
    {
      "inputs": [
        {
          "internalType": "address",
          "name": "walletAddress",
          "type": "address"
        }
      ],
      "name": "balanceOfRenter",
      "outputs": [
        {
          "internalType": "uint256",
          "name": "",
          "type": "uint256"
        }
      ],
      "stateMutability": "view",
      "type": "function"
    },
    {
      "inputs": [
        {
          "internalType": "address",
          "name": "walletAddress",
          "type": "address"
        }
      ],
      "name": "canRentCar",
      "outputs": [
        {
          "internalType": "bool",
          "name": "",
          "type": "bool"
        }
      ],
      "stateMutability": "view",
      "type": "function"
    },
    {
      "inputs": [
        {
          "internalType": "uint256",
          "name": "",
          "type": "uint256"
        }
      ],
      "name": "carIds",
      "outputs": [
        {
          "internalType": "uint256",
          "name": "",
          "type": "uint256"
        }
      ],
      "stateMutability": "view",
      "type": "function"
    },
    {
      "inputs": [
        {
          "internalType": "uint256",
          "name": "",
          "type": "uint256"
        }
      ],
      "name": "cars",
      "outputs": [
        {
          "internalType": "uint256",
          "name": "id",
          "type": "uint256"
        },
        {
          "internalType": "string",
          "name": "make",
          "type": "string"
        },
        {
          "internalType": "string",
          "name": "model",
          "type": "string"
        },
        {
          "internalType": "string",
          "name": "year",
          "type": "string"
        },
        {
          "internalType": "string",
          "name": "color",
          "type": "string"
        },
        {
          "internalType": "string",
          "name": "licensePlate",
          "type": "string"
        },
        {
          "internalType": "uint256",
          "name": "price",
          "type": "uint256"
        },
        {
          "internalType": "uint256",
          "name": "minDeposit",
          "type": "uint256"
        },
        {
          "internalType": "bool",
          "name": "available",
          "type": "bool"
        }
      ],
      "stateMutability": "view",
      "type": "function"
    },
    {
      "inputs": [],
      "name": "dropOff",
      "outputs": [],
      "stateMutability": "nonpayable",
      "type": "function"
    },
    {
      "inputs": [],
      "name": "getAllCarIds",
      "outputs": [
        {
          "internalType": "uint256[]",
          "name": "",
          "type": "uint256[]"
        }
      ],
      "stateMutability": "view",
      "type": "function"
    },
    {
      "inputs": [],
      "name": "getContractBalance",
      "outputs": [
        {
          "internalType": "uint256",
          "name": "",
          "type": "uint256"
        }
      ],
      "stateMutability": "view",
      "type": "function"
    },
    {
      "inputs": [
        {
          "internalType": "address",
          "name": "ownerAddress",
          "type": "address"
        }
      ],
      "name": "getOwnerBalance",
      "outputs": [
        {
          "internalType": "uint256",
          "name": "",
          "type": "uint256"
        }
      ],
      "stateMutability": "view",
      "type": "function"
    },
    {
      "inputs": [
        {
          "internalType": "address",
          "name": "ownerAddress",
          "type": "address"
        }
      ],
      "name": "getOwnerCars",
      "outputs": [
        {
          "internalType": "uint256[]",
          "name": "",
          "type": "uint256[]"
        }
      ],
      "stateMutability": "view",
      "type": "function"
    },
    {
      "inputs": [
        {
          "internalType": "address",
          "name": "walletAddress",
          "type": "address"
        }
      ],
      "name": "getRentDurationMinutes",
      "outputs": [
        {
          "internalType": "uint256",
          "name": "",
          "type": "uint256"
        }
      ],
      "stateMutability": "view",
      "type": "function"
    },
    {
      "inputs": [],
      "name": "i_owner",
      "outputs": [
        {
          "internalType": "address",
          "name": "",
          "type": "address"
        }
      ],
      "stateMutability": "view",
      "type": "function"
    },
    {
      "inputs": [],
      "name": "ownerWithdraw",
      "outputs": [],
      "stateMutability": "payable",
      "type": "function"
    },
    {
      "inputs": [
        {
          "internalType": "address",
          "name": "",
          "type": "address"
        }
      ],
      "name": "owners",
      "outputs": [
        {
          "internalType": "address payable",
          "name": "walletAddress",
          "type": "address"
        },
        {
          "internalType": "string",
          "name": "firstName",
          "type": "string"
        },
        {
          "internalType": "string",
          "name": "lastName",
          "type": "string"
        },
        {
          "internalType": "uint256",
          "name": "balance",
          "type": "uint256"
        }
      ],
      "stateMutability": "view",
      "type": "function"
    },
    {
      "inputs": [
        {
          "internalType": "uint256",
          "name": "carId",
          "type": "uint256"
        }
      ],
      "name": "pickUp",
      "outputs": [],
      "stateMutability": "nonpayable",
      "type": "function"
    },
    {
      "inputs": [],
      "name": "renterWithdraw",
      "outputs": [],
      "stateMutability": "payable",
      "type": "function"
    },
    {
      "inputs": [
        {
          "internalType": "address",
          "name": "",
          "type": "address"
        }
      ],
      "name": "renters",
      "outputs": [
        {
          "internalType": "address payable",
          "name": "walletAddress",
          "type": "address"
        },
        {
          "internalType": "string",
          "name": "firstName",
          "type": "string"
        },
        {
          "internalType": "string",
          "name": "lastName",
          "type": "string"
        },
        {
          "internalType": "bool",
          "name": "canRent",
          "type": "bool"
        },
        {
          "internalType": "uint256",
          "name": "rentedCarId",
          "type": "uint256"
        },
        {
          "internalType": "uint256",
          "name": "balance",
          "type": "uint256"
        },
        {
          "internalType": "uint256",
          "name": "reservedBalance",
          "type": "uint256"
        },
        {
          "internalType": "uint256",
          "name": "rentStart",
          "type": "uint256"
        },
        {
          "internalType": "uint256",
          "name": "rentEnd",
          "type": "uint256"
        }
      ],
      "stateMutability": "view",
      "type": "function"
    }
  ],
  "bytecode": "0x60a0604052600060045534801561001557600080fd5b503373ffffffffffffffffffffffffffffffffffffffff1660808173ffffffffffffffffffffffffffffffffffffffff1681525050608051612c7d61006560003960006114bb0152612c7d6000f3fe60806040526004361061011f5760003560e01c8063aad1b617116100a0578063cac5122c11610064578063cac5122c146103fa578063dba6335f14610404578063e9fd63bb1461042f578063f37f8c6e1461046c578063f7746e36146104835761011f565b8063aad1b61714610303578063ae1885ee14610340578063af6143d314610369578063b6e6f1ec146103a6578063c6155434146103cf5761011f565b8063740c0f5c116100e7578063740c0f5c146102075780637fcf440a146102445780638ce0bd4614610281578063914fe3091461029d578063a9855803146102da5761011f565b8063022914a7146101245780634311de8f14610164578063644a13701461016e5780636f9fb98a146101b35780636ff1ed71146101de575b600080fd5b34801561013057600080fd5b5061014b60048036038101906101469190611d75565b6104c8565b60405161015b9493929190611e6c565b60405180910390f35b61016c610628565b005b34801561017a57600080fd5b5061019560048036038101906101909190611d75565b61077d565b6040516101aa99989796959493929190611eda565b60405180910390f35b3480156101bf57600080fd5b506101c8610908565b6040516101d59190611f75565b60405180910390f35b3480156101ea57600080fd5b5061020560048036038101906102009190611fbc565b610910565b005b34801561021357600080fd5b5061022e60048036038101906102299190611fbc565b610c23565b60405161023b9190611f75565b60405180910390f35b34801561025057600080fd5b5061026b60048036038101906102669190611d75565b610c47565b6040516102789190611f75565b60405180910390f35b61029b60048036038101906102969190611d75565b610c93565b005b3480156102a957600080fd5b506102c460048036038101906102bf9190611d75565b610cee565b6040516102d191906120a7565b60405180910390f35b3480156102e657600080fd5b5061030160048036038101906102fc91906121fe565b610d88565b005b34801561030f57600080fd5b5061032a60048036038101906103259190611d75565b610f3c565b6040516103379190611f75565b60405180910390f35b34801561034c57600080fd5b5061036760048036038101906103629190612358565b610f87565b005b34801561037557600080fd5b50610390600480360381019061038b9190611d75565b6110ef565b60405161039d91906123e3565b60405180910390f35b3480156103b257600080fd5b506103cd60048036038101906103c89190612358565b611147565b005b3480156103db57600080fd5b506103e46112b1565b6040516103f191906120a7565b60405180910390f35b610402611309565b005b34801561041057600080fd5b506104196114b9565b604051610426919061240d565b60405180910390f35b34801561043b57600080fd5b5061045660048036038101906104519190611d75565b6114dd565b6040516104639190611f75565b60405180910390f35b34801561047857600080fd5b5061048161160d565b005b34801561048f57600080fd5b506104aa60048036038101906104a59190611fbc565b611847565b6040516104bf99989796959493929190612428565b60405180910390f35b60016020528060005260406000206000915090508060000160009054906101000a900473ffffffffffffffffffffffffffffffffffffffff169080600101805461051190612507565b80601f016020809104026020016040519081016040528092919081815260200182805461053d90612507565b801561058a5780601f1061055f5761010080835404028352916020019161058a565b820191906000526020600020905b81548152906001019060200180831161056d57829003601f168201915b50505050509080600201805461059f90612507565b80601f01602080910402602001604051908101604052809291908181526020018280546105cb90612507565b80156106185780601f106105ed57610100808354040283529160200191610618565b820191906000526020600020905b8154815290600101906020018083116105fb57829003601f168201915b5050505050908060030154905084565b60003390506000600160008373ffffffffffffffffffffffffffffffffffffffff1673ffffffffffffffffffffffffffffffffffffffff168152602001908152602001600020600301549050600081116106b7576040517f08c379a00000000000000000000000000000000000000000000000000000000081526004016106ae90612584565b60405180910390fd5b60003373ffffffffffffffffffffffffffffffffffffffff166108fc839081150290604051600060405180830381858888f19350505050905080610730576040517f08c379a0000000000000000000000000000000000000000000000000000000008152600401610727906125f0565b60405180910390fd5b6000600160008573ffffffffffffffffffffffffffffffffffffffff1673ffffffffffffffffffffffffffffffffffffffff16815260200190815260200160002060030181905550505050565b60006020528060005260406000206000915090508060000160009054906101000a900473ffffffffffffffffffffffffffffffffffffffff16908060010180546107c690612507565b80601f01602080910402602001604051908101604052809291908181526020018280546107f290612507565b801561083f5780601f106108145761010080835404028352916020019161083f565b820191906000526020600020905b81548152906001019060200180831161082257829003601f168201915b50505050509080600201805461085490612507565b80601f016020809104026020016040519081016040528092919081815260200182805461088090612507565b80156108cd5780601f106108a2576101008083540402835291602001916108cd565b820191906000526020600020905b8154815290600101906020018083116108b057829003601f168201915b5050505050908060030160009054906101000a900460ff16908060040154908060050154908060060154908060070154908060080154905089565b600047905090565b6000339050600115156002600084815260200190815260200160002060080160009054906101000a900460ff1615151461097f576040517f08c379a00000000000000000000000000000000000000000000000000000000081526004016109769061265c565b60405180910390fd5b600115156000808373ffffffffffffffffffffffffffffffffffffffff1673ffffffffffffffffffffffffffffffffffffffff16815260200190815260200160002060030160009054906101000a900460ff16151514610a14576040517f08c379a0000000000000000000000000000000000000000000000000000000008152600401610a0b906126c8565b60405180910390fd5b60026000838152602001908152602001600020600701546000808373ffffffffffffffffffffffffffffffffffffffff1673ffffffffffffffffffffffffffffffffffffffff168152602001908152602001600020600501541015610aae576040517f08c379a0000000000000000000000000000000000000000000000000000000008152600401610aa590612734565b60405180910390fd5b426000808373ffffffffffffffffffffffffffffffffffffffff1673ffffffffffffffffffffffffffffffffffffffff1681526020019081526020016000206007018190555060008060008373ffffffffffffffffffffffffffffffffffffffff1673ffffffffffffffffffffffffffffffffffffffff16815260200190815260200160002060030160006101000a81548160ff021916908315150217905550816000808373ffffffffffffffffffffffffffffffffffffffff1673ffffffffffffffffffffffffffffffffffffffff1681526020019081526020016000206004018190555060026000838152602001908152602001600020600701546000808373ffffffffffffffffffffffffffffffffffffffff1673ffffffffffffffffffffffffffffffffffffffff1681526020019081526020016000206006018190555060006002600084815260200190815260200160002060080160006101000a81548160ff0219169083151502179055505050565b60038181548110610c3357600080fd5b906000526020600020016000915090505481565b6000600160008373ffffffffffffffffffffffffffffffffffffffff1673ffffffffffffffffffffffffffffffffffffffff168152602001908152602001600020600301549050919050565b346000808373ffffffffffffffffffffffffffffffffffffffff1673ffffffffffffffffffffffffffffffffffffffff1681526020019081526020016000206005016000828254610ce49190612783565b9250508190555050565b6060600160008373ffffffffffffffffffffffffffffffffffffffff1673ffffffffffffffffffffffffffffffffffffffff168152602001908152602001600020600401805480602002602001604051908101604052809291908181526020018280548015610d7c57602002820191906000526020600020905b815481526020019060010190808311610d68575b50505050509050919050565b6000610d92611b4a565b905060003390506040518061012001604052808381526020018a81526020018981526020018881526020018781526020018681526020018581526020018481526020016001151581525060026000848152602001908152602001600020600082015181600001556020820151816001019081610e0e9190612963565b506040820151816002019081610e249190612963565b506060820151816003019081610e3a9190612963565b506080820151816004019081610e509190612963565b5060a0820151816005019081610e669190612963565b5060c0820151816006015560e082015181600701556101008201518160080160006101000a81548160ff021916908315150217905550905050600160008273ffffffffffffffffffffffffffffffffffffffff1673ffffffffffffffffffffffffffffffffffffffff1681526020019081526020016000206004018290806001815401808255809150506001900390600052602060002001600090919091909150556003829080600181540180825580915050600190039060005260206000200160009091909190915055505050505050505050565b60008060008373ffffffffffffffffffffffffffffffffffffffff1673ffffffffffffffffffffffffffffffffffffffff168152602001908152602001600020600501549050919050565b6040518060a001604052808473ffffffffffffffffffffffffffffffffffffffff16815260200183815260200182815260200160008152602001600067ffffffffffffffff811115610fdc57610fdb6120d3565b5b60405190808252806020026020018201604052801561100a5781602001602082028036833780820191505090505b50815250600160008573ffffffffffffffffffffffffffffffffffffffff1673ffffffffffffffffffffffffffffffffffffffff16815260200190815260200160002060008201518160000160006101000a81548173ffffffffffffffffffffffffffffffffffffffff021916908373ffffffffffffffffffffffffffffffffffffffff16021790555060208201518160010190816110a99190612963565b5060408201518160020190816110bf9190612963565b506060820151816003015560808201518160040190805190602001906110e6929190611c99565b50905050505050565b60008060008373ffffffffffffffffffffffffffffffffffffffff1673ffffffffffffffffffffffffffffffffffffffff16815260200190815260200160002060030160009054906101000a900460ff169050919050565b6040518061012001604052808473ffffffffffffffffffffffffffffffffffffffff1681526020018381526020018281526020016001151581526020016000815260200160008152602001600081526020016000815260200160008152506000808573ffffffffffffffffffffffffffffffffffffffff1673ffffffffffffffffffffffffffffffffffffffff16815260200190815260200160002060008201518160000160006101000a81548173ffffffffffffffffffffffffffffffffffffffff021916908373ffffffffffffffffffffffffffffffffffffffff160217905550602082015181600101908161123f9190612963565b5060408201518160020190816112559190612963565b5060608201518160030160006101000a81548160ff0219169083151502179055506080820151816004015560a0820151816005015560c0820151816006015560e082015181600701556101008201518160080155905050505050565b606060038054806020026020016040519081016040528092919081815260200182805480156112ff57602002820191906000526020600020905b8154815260200190600101908083116112eb575b5050505050905090565b600033905060008060008373ffffffffffffffffffffffffffffffffffffffff1673ffffffffffffffffffffffffffffffffffffffff168152602001908152602001600020600601546000808473ffffffffffffffffffffffffffffffffffffffff1673ffffffffffffffffffffffffffffffffffffffff1681526020019081526020016000206005015461139e9190612a35565b9050600081116113e3576040517f08c379a00000000000000000000000000000000000000000000000000000000081526004016113da90612584565b60405180910390fd5b60003373ffffffffffffffffffffffffffffffffffffffff166108fc839081150290604051600060405180830381858888f1935050505090508061145c576040517f08c379a0000000000000000000000000000000000000000000000000000000008152600401611453906125f0565b60405180910390fd5b816000808573ffffffffffffffffffffffffffffffffffffffff1673ffffffffffffffffffffffffffffffffffffffff16815260200190815260200160002060050160008282546114ad9190612a35565b92505081905550505050565b7f000000000000000000000000000000000000000000000000000000000000000081565b6000806000808473ffffffffffffffffffffffffffffffffffffffff1673ffffffffffffffffffffffffffffffffffffffff1681526020019081526020016000206004015403611562576040517f08c379a000000000000000000000000000000000000000000000000000000000815260040161155990612ab5565b60405180910390fd5b60006115f06000808573ffffffffffffffffffffffffffffffffffffffff1673ffffffffffffffffffffffffffffffffffffffff168152602001908152602001600020600701546000808673ffffffffffffffffffffffffffffffffffffffff1673ffffffffffffffffffffffffffffffffffffffff16815260200190815260200160002060080154611b6e565b90506000603c826116019190612b04565b90508092505050919050565b600033905060008060008373ffffffffffffffffffffffffffffffffffffffff1673ffffffffffffffffffffffffffffffffffffffff16815260200190815260200160002060040154905060008060008473ffffffffffffffffffffffffffffffffffffffff1673ffffffffffffffffffffffffffffffffffffffff16815260200190815260200160002060040154036116dc576040517f08c379a00000000000000000000000000000000000000000000000000000000081526004016116d390612ab5565b60405180910390fd5b6116e68282611b84565b60016000808473ffffffffffffffffffffffffffffffffffffffff1673ffffffffffffffffffffffffffffffffffffffff16815260200190815260200160002060030160006101000a81548160ff02191690831515021790555060008060008473ffffffffffffffffffffffffffffffffffffffff1673ffffffffffffffffffffffffffffffffffffffff1681526020019081526020016000206006018190555060008060008473ffffffffffffffffffffffffffffffffffffffff1673ffffffffffffffffffffffffffffffffffffffff1681526020019081526020016000206004018190555060016002600083815260200190815260200160002060080160006101000a81548160ff021916908315150217905550426000808473ffffffffffffffffffffffffffffffffffffffff1673ffffffffffffffffffffffffffffffffffffffff168152602001908152602001600020600801819055505050565b600260205280600052604060002060009150905080600001549080600101805461187090612507565b80601f016020809104026020016040519081016040528092919081815260200182805461189c90612507565b80156118e95780601f106118be576101008083540402835291602001916118e9565b820191906000526020600020905b8154815290600101906020018083116118cc57829003601f168201915b5050505050908060020180546118fe90612507565b80601f016020809104026020016040519081016040528092919081815260200182805461192a90612507565b80156119775780601f1061194c57610100808354040283529160200191611977565b820191906000526020600020905b81548152906001019060200180831161195a57829003601f168201915b50505050509080600301805461198c90612507565b80601f01602080910402602001604051908101604052809291908181526020018280546119b890612507565b8015611a055780601f106119da57610100808354040283529160200191611a05565b820191906000526020600020905b8154815290600101906020018083116119e857829003601f168201915b505050505090806004018054611a1a90612507565b80601f0160208091040260200160405190810160405280929190818152602001828054611a4690612507565b8015611a935780601f10611a6857610100808354040283529160200191611a93565b820191906000526020600020905b815481529060010190602001808311611a7657829003601f168201915b505050505090806005018054611aa890612507565b80601f0160208091040260200160405190810160405280929190818152602001828054611ad490612507565b8015611b215780601f10611af657610100808354040283529160200191611b21565b820191906000526020600020905b815481529060010190602001808311611b0457829003601f168201915b5050505050908060060154908060070154908060080160009054906101000a900460ff16905089565b6000600160046000828254611b5f9190612783565b92505081905550600454905090565b60008282611b7c9190612a35565b905092915050565b6000611b8f836114dd565b90506000600260008481526020019081526020016000206006015482611bb59190612b35565b9050806000808673ffffffffffffffffffffffffffffffffffffffff1673ffffffffffffffffffffffffffffffffffffffff168152602001908152602001600020600501541015611c3b576040517f08c379a0000000000000000000000000000000000000000000000000000000008152600401611c3290612c27565b60405180910390fd5b806000808673ffffffffffffffffffffffffffffffffffffffff1673ffffffffffffffffffffffffffffffffffffffff1681526020019081526020016000206005016000828254611c8c9190612a35565b9250508190555050505050565b828054828255906000526020600020908101928215611cd5579160200282015b82811115611cd4578251825591602001919060010190611cb9565b5b509050611ce29190611ce6565b5090565b5b80821115611cff576000816000905550600101611ce7565b5090565b6000604051905090565b600080fd5b600080fd5b600073ffffffffffffffffffffffffffffffffffffffff82169050919050565b6000611d4282611d17565b9050919050565b611d5281611d37565b8114611d5d57600080fd5b50565b600081359050611d6f81611d49565b92915050565b600060208284031215611d8b57611d8a611d0d565b5b6000611d9984828501611d60565b91505092915050565b6000611dad82611d17565b9050919050565b611dbd81611da2565b82525050565b600081519050919050565b600082825260208201905092915050565b60005b83811015611dfd578082015181840152602081019050611de2565b60008484015250505050565b6000601f19601f8301169050919050565b6000611e2582611dc3565b611e2f8185611dce565b9350611e3f818560208601611ddf565b611e4881611e09565b840191505092915050565b6000819050919050565b611e6681611e53565b82525050565b6000608082019050611e816000830187611db4565b8181036020830152611e938186611e1a565b90508181036040830152611ea78185611e1a565b9050611eb66060830184611e5d565b95945050505050565b60008115159050919050565b611ed481611ebf565b82525050565b600061012082019050611ef0600083018c611db4565b8181036020830152611f02818b611e1a565b90508181036040830152611f16818a611e1a565b9050611f256060830189611ecb565b611f326080830188611e5d565b611f3f60a0830187611e5d565b611f4c60c0830186611e5d565b611f5960e0830185611e5d565b611f67610100830184611e5d565b9a9950505050505050505050565b6000602082019050611f8a6000830184611e5d565b92915050565b611f9981611e53565b8114611fa457600080fd5b50565b600081359050611fb681611f90565b92915050565b600060208284031215611fd257611fd1611d0d565b5b6000611fe084828501611fa7565b91505092915050565b600081519050919050565b600082825260208201905092915050565b6000819050602082019050919050565b61201e81611e53565b82525050565b60006120308383612015565b60208301905092915050565b6000602082019050919050565b600061205482611fe9565b61205e8185611ff4565b935061206983612005565b8060005b8381101561209a5781516120818882612024565b975061208c8361203c565b92505060018101905061206d565b5085935050505092915050565b600060208201905081810360008301526120c18184612049565b905092915050565b600080fd5b600080fd5b7f4e487b7100000000000000000000000000000000000000000000000000000000600052604160045260246000fd5b61210b82611e09565b810181811067ffffffffffffffff8211171561212a576121296120d3565b5b80604052505050565b600061213d611d03565b90506121498282612102565b919050565b600067ffffffffffffffff821115612169576121686120d3565b5b61217282611e09565b9050602081019050919050565b82818337600083830152505050565b60006121a161219c8461214e565b612133565b9050828152602081018484840111156121bd576121bc6120ce565b5b6121c884828561217f565b509392505050565b600082601f8301126121e5576121e46120c9565b5b81356121f584826020860161218e565b91505092915050565b600080600080600080600060e0888a03121561221d5761221c611d0d565b5b600088013567ffffffffffffffff81111561223b5761223a611d12565b5b6122478a828b016121d0565b975050602088013567ffffffffffffffff81111561226857612267611d12565b5b6122748a828b016121d0565b965050604088013567ffffffffffffffff81111561229557612294611d12565b5b6122a18a828b016121d0565b955050606088013567ffffffffffffffff8111156122c2576122c1611d12565b5b6122ce8a828b016121d0565b945050608088013567ffffffffffffffff8111156122ef576122ee611d12565b5b6122fb8a828b016121d0565b93505060a061230c8a828b01611fa7565b92505060c061231d8a828b01611fa7565b91505092959891949750929550565b61233581611da2565b811461234057600080fd5b50565b6000813590506123528161232c565b92915050565b60008060006060848603121561237157612370611d0d565b5b600061237f86828701612343565b935050602084013567ffffffffffffffff8111156123a05761239f611d12565b5b6123ac868287016121d0565b925050604084013567ffffffffffffffff8111156123cd576123cc611d12565b5b6123d9868287016121d0565b9150509250925092565b60006020820190506123f86000830184611ecb565b92915050565b61240781611d37565b82525050565b600060208201905061242260008301846123fe565b92915050565b60006101208201905061243e600083018c611e5d565b8181036020830152612450818b611e1a565b90508181036040830152612464818a611e1a565b905081810360608301526124788189611e1a565b9050818103608083015261248c8188611e1a565b905081810360a08301526124a08187611e1a565b90506124af60c0830186611e5d565b6124bc60e0830185611e5d565b6124ca610100830184611ecb565b9a9950505050505050505050565b7f4e487b7100000000000000000000000000000000000000000000000000000000600052602260045260246000fd5b6000600282049050600182168061251f57607f821691505b602082108103612532576125316124d8565b5b50919050565b7f596f752068617665206e6f206d6f6e657920746f207769746864726177000000600082015250565b600061256e601d83611dce565b915061257982612538565b602082019050919050565b6000602082019050818103600083015261259d81612561565b9050919050565b7f4661696c656420746f2073656e64204574686572000000000000000000000000600082015250565b60006125da601483611dce565b91506125e5826125a4565b602082019050919050565b60006020820190508181036000830152612609816125cd565b9050919050565b7f436172206973206e6f7420617661696c61626c65000000000000000000000000600082015250565b6000612646601483611dce565b915061265182612610565b602082019050919050565b6000602082019050818103600083015261267581612639565b9050919050565b7f596f752063616e206e6f742072656e7420617420746869732074696d65000000600082015250565b60006126b2601d83611dce565b91506126bd8261267c565b602082019050919050565b600060208201905081810360008301526126e1816126a5565b9050919050565b7f796f7572206465706f73697420697320746f6f206c6f77000000000000000000600082015250565b600061271e601783611dce565b9150612729826126e8565b602082019050919050565b6000602082019050818103600083015261274d81612711565b9050919050565b7f4e487b7100000000000000000000000000000000000000000000000000000000600052601160045260246000fd5b600061278e82611e53565b915061279983611e53565b92508282019050808211156127b1576127b0612754565b5b92915050565b60008190508160005260206000209050919050565b60006020601f8301049050919050565b600082821b905092915050565b6000600883026128197fffffffffffffffffffffffffffffffffffffffffffffffffffffffffffffffff826127dc565b61282386836127dc565b95508019841693508086168417925050509392505050565b6000819050919050565b600061286061285b61285684611e53565b61283b565b611e53565b9050919050565b6000819050919050565b61287a83612845565b61288e61288682612867565b8484546127e9565b825550505050565b600090565b6128a3612896565b6128ae818484612871565b505050565b5b818110156128d2576128c760008261289b565b6001810190506128b4565b5050565b601f821115612917576128e8816127b7565b6128f1846127cc565b81016020851015612900578190505b61291461290c856127cc565b8301826128b3565b50505b505050565b600082821c905092915050565b600061293a6000198460080261291c565b1980831691505092915050565b60006129538383612929565b9150826002028217905092915050565b61296c82611dc3565b67ffffffffffffffff811115612985576129846120d3565b5b61298f8254612507565b61299a8282856128d6565b600060209050601f8311600181146129cd57600084156129bb578287015190505b6129c58582612947565b865550612a2d565b601f1984166129db866127b7565b60005b82811015612a03578489015182556001820191506020850194506020810190506129de565b86831015612a205784890151612a1c601f891682612929565b8355505b6001600288020188555050505b505050505050565b6000612a4082611e53565b9150612a4b83611e53565b9250828203905081811115612a6357612a62612754565b5b92915050565b7f796f75206861766520746f2072656e7420612063617220666972737400000000600082015250565b6000612a9f601c83611dce565b9150612aaa82612a69565b602082019050919050565b60006020820190508181036000830152612ace81612a92565b9050919050565b7f4e487b7100000000000000000000000000000000000000000000000000000000600052601260045260246000fd5b6000612b0f82611e53565b9150612b1a83611e53565b925082612b2a57612b29612ad5565b5b828204905092915050565b6000612b4082611e53565b9150612b4b83611e53565b9250817fffffffffffffffffffffffffffffffffffffffffffffffffffffffffffffffff0483118215151615612b8457612b83612754565b5b828202905092915050565b7f596f7520646f6e2774206861766520656e6f756768742066756e647320746f2060008201527f636f766572207061796d656e742e20506c65617365206d616b6520612064657060208201527f6f7369742e000000000000000000000000000000000000000000000000000000604082015250565b6000612c11604583611dce565b9150612c1c82612b8f565b606082019050919050565b60006020820190508181036000830152612c4081612c04565b905091905056fea26469706673582212200a714a62286e947c446354650cd9a25dba89bccc751f2fd9ab833ce75f28fd7164736f6c63430008100033",
  "linkReferences": {},
  "deployedLinkReferences": {}
}