{
  "_format": "hh-sol-artifact-1",
  "contractName": "CarRental",
  "sourceName": "contracts/CarRental.sol",
  "abi": [
    {
      "inputs": [],
      "stateMutability": "nonpayable",
      "type": "constructor"
    },
    {
      "inputs": [
        {
          "internalType": "string",
          "name": "make",
          "type": "string"
        },
        {
          "internalType": "string",
          "name": "model",
          "type": "string"
        },
        {
          "internalType": "string",
          "name": "year",
          "type": "string"
        },
        {
          "internalType": "string",
          "name": "color",
          "type": "string"
        },
        {
          "internalType": "string",
          "name": "licensePlate",
          "type": "string"
        },
        {
          "internalType": "uint256",
          "name": "price",
          "type": "uint256"
        },
        {
          "internalType": "uint256",
          "name": "minDeposit",
          "type": "uint256"
        }
      ],
      "name": "addCar",
      "outputs": [],
      "stateMutability": "nonpayable",
      "type": "function"
    },
    {
      "inputs": [
        {
          "internalType": "address payable",
          "name": "walletAddress",
          "type": "address"
        },
        {
          "internalType": "string",
          "name": "firstName",
          "type": "string"
        },
        {
          "internalType": "string",
          "name": "lastName",
          "type": "string"
        }
      ],
      "name": "addOwner",
      "outputs": [],
      "stateMutability": "nonpayable",
      "type": "function"
    },
    {
      "inputs": [
        {
          "internalType": "address payable",
          "name": "walletAddress",
          "type": "address"
        },
        {
          "internalType": "string",
          "name": "firstName",
          "type": "string"
        },
        {
          "internalType": "string",
          "name": "lastName",
          "type": "string"
        }
      ],
      "name": "addRenter",
      "outputs": [],
      "stateMutability": "nonpayable",
      "type": "function"
    },
    {
      "inputs": [
        {
          "internalType": "address",
          "name": "walletAddress",
          "type": "address"
        }
      ],
      "name": "balanceOfRenter",
      "outputs": [
        {
          "internalType": "uint256",
          "name": "",
          "type": "uint256"
        }
      ],
      "stateMutability": "view",
      "type": "function"
    },
    {
      "inputs": [
        {
          "internalType": "address",
          "name": "walletAddress",
          "type": "address"
        }
      ],
      "name": "canRentCar",
      "outputs": [
        {
          "internalType": "bool",
          "name": "",
          "type": "bool"
        }
      ],
      "stateMutability": "view",
      "type": "function"
    },
    {
      "inputs": [
        {
          "internalType": "uint256",
          "name": "",
          "type": "uint256"
        }
      ],
      "name": "carIds",
      "outputs": [
        {
          "internalType": "uint256",
          "name": "",
          "type": "uint256"
        }
      ],
      "stateMutability": "view",
      "type": "function"
    },
    {
      "inputs": [
        {
          "internalType": "uint256",
          "name": "",
          "type": "uint256"
        }
      ],
      "name": "cars",
      "outputs": [
        {
          "internalType": "uint256",
          "name": "id",
          "type": "uint256"
        },
        {
          "internalType": "string",
          "name": "make",
          "type": "string"
        },
        {
          "internalType": "string",
          "name": "model",
          "type": "string"
        },
        {
          "internalType": "string",
          "name": "year",
          "type": "string"
        },
        {
          "internalType": "string",
          "name": "color",
          "type": "string"
        },
        {
          "internalType": "string",
          "name": "licensePlate",
          "type": "string"
        },
        {
          "internalType": "uint256",
          "name": "price",
          "type": "uint256"
        },
        {
          "internalType": "uint256",
          "name": "minDeposit",
          "type": "uint256"
        },
        {
          "internalType": "bool",
          "name": "available",
          "type": "bool"
        },
        {
          "internalType": "address",
          "name": "ownerAddress",
          "type": "address"
        }
      ],
      "stateMutability": "view",
      "type": "function"
    },
    {
      "inputs": [
        {
          "internalType": "address",
          "name": "walletAddress",
          "type": "address"
        }
      ],
      "name": "deposit",
      "outputs": [],
      "stateMutability": "payable",
      "type": "function"
    },
    {
      "inputs": [],
      "name": "dropOff",
      "outputs": [],
      "stateMutability": "nonpayable",
      "type": "function"
    },
    {
      "inputs": [],
      "name": "getAllCarIds",
      "outputs": [
        {
          "internalType": "uint256[]",
          "name": "",
          "type": "uint256[]"
        }
      ],
      "stateMutability": "view",
      "type": "function"
    },
    {
      "inputs": [],
      "name": "getContractBalance",
      "outputs": [
        {
          "internalType": "uint256",
          "name": "",
          "type": "uint256"
        }
      ],
      "stateMutability": "view",
      "type": "function"
    },
    {
      "inputs": [
        {
          "internalType": "address",
          "name": "ownerAddress",
          "type": "address"
        }
      ],
      "name": "getOwnerBalance",
      "outputs": [
        {
          "internalType": "uint256",
          "name": "",
          "type": "uint256"
        }
      ],
      "stateMutability": "view",
      "type": "function"
    },
    {
      "inputs": [
        {
          "internalType": "address",
          "name": "ownerAddress",
          "type": "address"
        }
      ],
      "name": "getOwnerCars",
      "outputs": [
        {
          "internalType": "uint256[]",
          "name": "",
          "type": "uint256[]"
        }
      ],
      "stateMutability": "view",
      "type": "function"
    },
    {
      "inputs": [
        {
          "internalType": "address",
          "name": "walletAddress",
          "type": "address"
        }
      ],
      "name": "getRentDurationMinutes",
      "outputs": [
        {
          "internalType": "uint256",
          "name": "",
          "type": "uint256"
        }
      ],
      "stateMutability": "view",
      "type": "function"
    },
    {
      "inputs": [],
      "name": "i_owner",
      "outputs": [
        {
          "internalType": "address",
          "name": "",
          "type": "address"
        }
      ],
      "stateMutability": "view",
      "type": "function"
    },
    {
      "inputs": [
        {
          "internalType": "uint256",
          "name": "amount",
          "type": "uint256"
        }
      ],
      "name": "ownerWithdraw",
      "outputs": [],
      "stateMutability": "payable",
      "type": "function"
    },
    {
      "inputs": [
        {
          "internalType": "address",
          "name": "",
          "type": "address"
        }
      ],
      "name": "owners",
      "outputs": [
        {
          "internalType": "address payable",
          "name": "walletAddress",
          "type": "address"
        },
        {
          "internalType": "string",
          "name": "firstName",
          "type": "string"
        },
        {
          "internalType": "string",
          "name": "lastName",
          "type": "string"
        },
        {
          "internalType": "uint256",
          "name": "balance",
          "type": "uint256"
        }
      ],
      "stateMutability": "view",
      "type": "function"
    },
    {
      "inputs": [
        {
          "internalType": "uint256",
          "name": "carId",
          "type": "uint256"
        }
      ],
      "name": "pickUp",
      "outputs": [],
      "stateMutability": "nonpayable",
      "type": "function"
    },
    {
      "inputs": [
        {
          "internalType": "uint256",
          "name": "amount",
          "type": "uint256"
        }
      ],
      "name": "renterWithdraw",
      "outputs": [],
      "stateMutability": "payable",
      "type": "function"
    },
    {
      "inputs": [
        {
          "internalType": "address",
          "name": "",
          "type": "address"
        }
      ],
      "name": "renters",
      "outputs": [
        {
          "internalType": "address payable",
          "name": "walletAddress",
          "type": "address"
        },
        {
          "internalType": "string",
          "name": "firstName",
          "type": "string"
        },
        {
          "internalType": "string",
          "name": "lastName",
          "type": "string"
        },
        {
          "internalType": "bool",
          "name": "canRent",
          "type": "bool"
        },
        {
          "internalType": "uint256",
          "name": "rentedCarId",
          "type": "uint256"
        },
        {
          "internalType": "uint256",
          "name": "balance",
          "type": "uint256"
        },
        {
          "internalType": "uint256",
          "name": "licenseId",
          "type": "uint256"
        },
        {
          "internalType": "uint256",
          "name": "rentStart",
          "type": "uint256"
        },
        {
          "internalType": "uint256",
          "name": "rentEnd",
          "type": "uint256"
        }
      ],
      "stateMutability": "view",
      "type": "function"
    }
  ],
  "bytecode": "0x60a0604052600060045534801561001557600080fd5b503373ffffffffffffffffffffffffffffffffffffffff1660808173ffffffffffffffffffffffffffffffffffffffff1681525050608051612fa361006560003960006113bf0152612fa36000f3fe60806040526004361061011f5760003560e01c8063ae1885ee116100a0578063e9fd63bb11610064578063e9fd63bb1461041b578063f340fa0114610458578063f37f8c6e14610474578063f7746e361461048b578063f7ce1639146104d15761011f565b8063ae1885ee14610336578063af6143d31461035f578063b6e6f1ec1461039c578063c6155434146103c5578063dba6335f146103f05761011f565b8063740c0f5c116100e7578063740c0f5c146102195780637fcf440a14610256578063914fe30914610293578063a9855803146102d0578063aad1b617146102f95761011f565b8063022914a71461012457806333f707d114610164578063644a1370146101805780636f9fb98a146101c55780636ff1ed71146101f0575b600080fd5b34801561013057600080fd5b5061014b60048036038101906101469190611f42565b6104ed565b60405161015b9493929190612039565b60405180910390f35b61017e600480360381019061017991906120b8565b61064d565b005b34801561018c57600080fd5b506101a760048036038101906101a29190611f42565b6107b4565b6040516101bc99989796959493929190612100565b60405180910390f35b3480156101d157600080fd5b506101da61093f565b6040516101e7919061219b565b60405180910390f35b3480156101fc57600080fd5b50610217600480360381019061021291906120b8565b610947565b005b34801561022557600080fd5b50610240600480360381019061023b91906120b8565b610bfe565b60405161024d919061219b565b60405180910390f35b34801561026257600080fd5b5061027d60048036038101906102789190611f42565b610c22565b60405161028a919061219b565b60405180910390f35b34801561029f57600080fd5b506102ba60048036038101906102b59190611f42565b610c6e565b6040516102c79190612274565b60405180910390f35b3480156102dc57600080fd5b506102f760048036038101906102f291906123cb565b610d08565b005b34801561030557600080fd5b50610320600480360381019061031b9190611f42565b610ff0565b60405161032d919061219b565b60405180910390f35b34801561034257600080fd5b5061035d60048036038101906103589190612525565b61103b565b005b34801561036b57600080fd5b5061038660048036038101906103819190611f42565b6111a3565b60405161039391906125b0565b60405180910390f35b3480156103a857600080fd5b506103c360048036038101906103be9190612525565b6111fb565b005b3480156103d157600080fd5b506103da611365565b6040516103e79190612274565b60405180910390f35b3480156103fc57600080fd5b506104056113bd565b60405161041291906125da565b60405180910390f35b34801561042757600080fd5b50610442600480360381019061043d9190611f42565b6113e1565b60405161044f919061219b565b60405180910390f35b610472600480360381019061046d9190611f42565b611511565b005b34801561048057600080fd5b5061048961156c565b005b34801561049757600080fd5b506104b260048036038101906104ad91906120b8565b61175f565b6040516104c89a999897969594939291906125f5565b60405180910390f35b6104eb60048036038101906104e691906120b8565b611a88565b005b60016020528060005260406000206000915090508060000160009054906101000a900473ffffffffffffffffffffffffffffffffffffffff1690806001018054610536906126e3565b80601f0160208091040260200160405190810160405280929190818152602001828054610562906126e3565b80156105af5780601f10610584576101008083540402835291602001916105af565b820191906000526020600020905b81548152906001019060200180831161059257829003601f168201915b5050505050908060020180546105c4906126e3565b80601f01602080910402602001604051908101604052809291908181526020018280546105f0906126e3565b801561063d5780601f106106125761010080835404028352916020019161063d565b820191906000526020600020905b81548152906001019060200180831161062057829003601f168201915b5050505050908060030154905084565b60003390506000600160008373ffffffffffffffffffffffffffffffffffffffff1673ffffffffffffffffffffffffffffffffffffffff168152602001908152602001600020600301549050808311156106dc576040517f08c379a00000000000000000000000000000000000000000000000000000000081526004016106d390612786565b60405180910390fd5b60003373ffffffffffffffffffffffffffffffffffffffff166108fc859081150290604051600060405180830381858888f19350505050905080610755576040517f08c379a000000000000000000000000000000000000000000000000000000000815260040161074c906127f2565b60405180910390fd5b83600160008573ffffffffffffffffffffffffffffffffffffffff1673ffffffffffffffffffffffffffffffffffffffff16815260200190815260200160002060030160008282546107a79190612841565b9250508190555050505050565b60006020528060005260406000206000915090508060000160009054906101000a900473ffffffffffffffffffffffffffffffffffffffff16908060010180546107fd906126e3565b80601f0160208091040260200160405190810160405280929190818152602001828054610829906126e3565b80156108765780601f1061084b57610100808354040283529160200191610876565b820191906000526020600020905b81548152906001019060200180831161085957829003601f168201915b50505050509080600201805461088b906126e3565b80601f01602080910402602001604051908101604052809291908181526020018280546108b7906126e3565b80156109045780601f106108d957610100808354040283529160200191610904565b820191906000526020600020905b8154815290600101906020018083116108e757829003601f168201915b5050505050908060030160009054906101000a900460ff16908060040154908060050154908060060154908060070154908060080154905089565b600047905090565b6000339050600115156002600084815260200190815260200160002060080160009054906101000a900460ff161515146109b6576040517f08c379a00000000000000000000000000000000000000000000000000000000081526004016109ad906128c1565b60405180910390fd5b600115156000808373ffffffffffffffffffffffffffffffffffffffff1673ffffffffffffffffffffffffffffffffffffffff16815260200190815260200160002060030160009054906101000a900460ff16151514610a4b576040517f08c379a0000000000000000000000000000000000000000000000000000000008152600401610a429061292d565b60405180910390fd5b60026000838152602001908152602001600020600701546000808373ffffffffffffffffffffffffffffffffffffffff1673ffffffffffffffffffffffffffffffffffffffff168152602001908152602001600020600501541015610ae5576040517f08c379a0000000000000000000000000000000000000000000000000000000008152600401610adc90612999565b60405180910390fd5b426000808373ffffffffffffffffffffffffffffffffffffffff1673ffffffffffffffffffffffffffffffffffffffff1681526020019081526020016000206007018190555060008060008373ffffffffffffffffffffffffffffffffffffffff1673ffffffffffffffffffffffffffffffffffffffff16815260200190815260200160002060030160006101000a81548160ff021916908315150217905550816000808373ffffffffffffffffffffffffffffffffffffffff1673ffffffffffffffffffffffffffffffffffffffff1681526020019081526020016000206004018190555060006002600084815260200190815260200160002060080160006101000a81548160ff0219169083151502179055505050565b60038181548110610c0e57600080fd5b906000526020600020016000915090505481565b6000600160008373ffffffffffffffffffffffffffffffffffffffff1673ffffffffffffffffffffffffffffffffffffffff168152602001908152602001600020600301549050919050565b6060600160008373ffffffffffffffffffffffffffffffffffffffff1673ffffffffffffffffffffffffffffffffffffffff168152602001908152602001600020600401805480602002602001604051908101604052809291908181526020018280548015610cfc57602002820191906000526020600020905b815481526020019060010190808311610ce8575b50505050509050919050565b6000610d12611c82565b905060003390508073ffffffffffffffffffffffffffffffffffffffff16600160008373ffffffffffffffffffffffffffffffffffffffff1673ffffffffffffffffffffffffffffffffffffffff16815260200190815260200160002060000160009054906101000a900473ffffffffffffffffffffffffffffffffffffffff1673ffffffffffffffffffffffffffffffffffffffff1614610de9576040517f08c379a0000000000000000000000000000000000000000000000000000000008152600401610de090612a2b565b60405180910390fd5b6040518061014001604052808381526020018a81526020018981526020018881526020018781526020018681526020018581526020018481526020016001151581526020018273ffffffffffffffffffffffffffffffffffffffff1681525060026000848152602001908152602001600020600082015181600001556020820151816001019081610e7a9190612bf7565b506040820151816002019081610e909190612bf7565b506060820151816003019081610ea69190612bf7565b506080820151816004019081610ebc9190612bf7565b5060a0820151816005019081610ed29190612bf7565b5060c0820151816006015560e082015181600701556101008201518160080160006101000a81548160ff0219169083151502179055506101208201518160080160016101000a81548173ffffffffffffffffffffffffffffffffffffffff021916908373ffffffffffffffffffffffffffffffffffffffff160217905550905050600160008273ffffffffffffffffffffffffffffffffffffffff1673ffffffffffffffffffffffffffffffffffffffff1681526020019081526020016000206004018290806001815401808255809150506001900390600052602060002001600090919091909150556003829080600181540180825580915050600190039060005260206000200160009091909190915055505050505050505050565b60008060008373ffffffffffffffffffffffffffffffffffffffff1673ffffffffffffffffffffffffffffffffffffffff168152602001908152602001600020600501549050919050565b6040518060a001604052808473ffffffffffffffffffffffffffffffffffffffff16815260200183815260200182815260200160008152602001600067ffffffffffffffff8111156110905761108f6122a0565b5b6040519080825280602002602001820160405280156110be5781602001602082028036833780820191505090505b50815250600160008573ffffffffffffffffffffffffffffffffffffffff1673ffffffffffffffffffffffffffffffffffffffff16815260200190815260200160002060008201518160000160006101000a81548173ffffffffffffffffffffffffffffffffffffffff021916908373ffffffffffffffffffffffffffffffffffffffff160217905550602082015181600101908161115d9190612bf7565b5060408201518160020190816111739190612bf7565b5060608201518160030155608082015181600401908051906020019061119a929190611e66565b50905050505050565b60008060008373ffffffffffffffffffffffffffffffffffffffff1673ffffffffffffffffffffffffffffffffffffffff16815260200190815260200160002060030160009054906101000a900460ff169050919050565b6040518061012001604052808473ffffffffffffffffffffffffffffffffffffffff1681526020018381526020018281526020016001151581526020016000815260200160008152602001600081526020016000815260200160008152506000808573ffffffffffffffffffffffffffffffffffffffff1673ffffffffffffffffffffffffffffffffffffffff16815260200190815260200160002060008201518160000160006101000a81548173ffffffffffffffffffffffffffffffffffffffff021916908373ffffffffffffffffffffffffffffffffffffffff16021790555060208201518160010190816112f39190612bf7565b5060408201518160020190816113099190612bf7565b5060608201518160030160006101000a81548160ff0219169083151502179055506080820151816004015560a0820151816005015560c0820151816006015560e082015181600701556101008201518160080155905050505050565b606060038054806020026020016040519081016040528092919081815260200182805480156113b357602002820191906000526020600020905b81548152602001906001019080831161139f575b5050505050905090565b7f000000000000000000000000000000000000000000000000000000000000000081565b6000806000808473ffffffffffffffffffffffffffffffffffffffff1673ffffffffffffffffffffffffffffffffffffffff1681526020019081526020016000206004015403611466576040517f08c379a000000000000000000000000000000000000000000000000000000000815260040161145d90612d15565b60405180910390fd5b60006114f46000808573ffffffffffffffffffffffffffffffffffffffff1673ffffffffffffffffffffffffffffffffffffffff168152602001908152602001600020600701546000808673ffffffffffffffffffffffffffffffffffffffff1673ffffffffffffffffffffffffffffffffffffffff16815260200190815260200160002060080154611ca6565b90506000603c826115059190612d64565b90508092505050919050565b346000808373ffffffffffffffffffffffffffffffffffffffff1673ffffffffffffffffffffffffffffffffffffffff16815260200190815260200160002060050160008282546115629190612d95565b9250508190555050565b600033905060008060008373ffffffffffffffffffffffffffffffffffffffff1673ffffffffffffffffffffffffffffffffffffffff16815260200190815260200160002060040154905060008060008473ffffffffffffffffffffffffffffffffffffffff1673ffffffffffffffffffffffffffffffffffffffff168152602001908152602001600020600401540361163b576040517f08c379a000000000000000000000000000000000000000000000000000000000815260040161163290612d15565b60405180910390fd5b426000808473ffffffffffffffffffffffffffffffffffffffff1673ffffffffffffffffffffffffffffffffffffffff1681526020019081526020016000206008018190555061168b8282611cbc565b60016000808473ffffffffffffffffffffffffffffffffffffffff1673ffffffffffffffffffffffffffffffffffffffff16815260200190815260200160002060030160006101000a81548160ff02191690831515021790555060008060008473ffffffffffffffffffffffffffffffffffffffff1673ffffffffffffffffffffffffffffffffffffffff1681526020019081526020016000206004018190555060016002600083815260200190815260200160002060080160006101000a81548160ff0219169083151502179055505050565b6002602052806000526040600020600091509050806000015490806001018054611788906126e3565b80601f01602080910402602001604051908101604052809291908181526020018280546117b4906126e3565b80156118015780601f106117d657610100808354040283529160200191611801565b820191906000526020600020905b8154815290600101906020018083116117e457829003601f168201915b505050505090806002018054611816906126e3565b80601f0160208091040260200160405190810160405280929190818152602001828054611842906126e3565b801561188f5780601f106118645761010080835404028352916020019161188f565b820191906000526020600020905b81548152906001019060200180831161187257829003601f168201915b5050505050908060030180546118a4906126e3565b80601f01602080910402602001604051908101604052809291908181526020018280546118d0906126e3565b801561191d5780601f106118f25761010080835404028352916020019161191d565b820191906000526020600020905b81548152906001019060200180831161190057829003601f168201915b505050505090806004018054611932906126e3565b80601f016020809104026020016040519081016040528092919081815260200182805461195e906126e3565b80156119ab5780601f10611980576101008083540402835291602001916119ab565b820191906000526020600020905b81548152906001019060200180831161198e57829003601f168201915b5050505050908060050180546119c0906126e3565b80601f01602080910402602001604051908101604052809291908181526020018280546119ec906126e3565b8015611a395780601f10611a0e57610100808354040283529160200191611a39565b820191906000526020600020905b815481529060010190602001808311611a1c57829003601f168201915b5050505050908060060154908060070154908060080160009054906101000a900460ff16908060080160019054906101000a900473ffffffffffffffffffffffffffffffffffffffff1690508a565b6000339050600115156000808373ffffffffffffffffffffffffffffffffffffffff1673ffffffffffffffffffffffffffffffffffffffff16815260200190815260200160002060030160009054906101000a900460ff16151514611b22576040517f08c379a0000000000000000000000000000000000000000000000000000000008152600401611b1990612e3b565b60405180910390fd5b60008060008373ffffffffffffffffffffffffffffffffffffffff1673ffffffffffffffffffffffffffffffffffffffff16815260200190815260200160002060050154905080831115611bab576040517f08c379a0000000000000000000000000000000000000000000000000000000008152600401611ba290612786565b60405180910390fd5b60003373ffffffffffffffffffffffffffffffffffffffff166108fc859081150290604051600060405180830381858888f19350505050905080611c24576040517f08c379a0000000000000000000000000000000000000000000000000000000008152600401611c1b906127f2565b60405180910390fd5b836000808573ffffffffffffffffffffffffffffffffffffffff1673ffffffffffffffffffffffffffffffffffffffff1681526020019081526020016000206005016000828254611c759190612841565b9250508190555050505050565b6000600160046000828254611c979190612d95565b92505081905550600454905090565b60008282611cb49190612841565b905092915050565b6000611cc7836113e1565b90506000600260008481526020019081526020016000206006015482611ced9190612e5b565b9050806000808673ffffffffffffffffffffffffffffffffffffffff1673ffffffffffffffffffffffffffffffffffffffff168152602001908152602001600020600501541015611d73576040517f08c379a0000000000000000000000000000000000000000000000000000000008152600401611d6a90612f4d565b60405180910390fd5b806000808673ffffffffffffffffffffffffffffffffffffffff1673ffffffffffffffffffffffffffffffffffffffff1681526020019081526020016000206005016000828254611dc49190612841565b9250508190555060006002600085815260200190815260200160002060080160019054906101000a900473ffffffffffffffffffffffffffffffffffffffff16905081600160008373ffffffffffffffffffffffffffffffffffffffff1673ffffffffffffffffffffffffffffffffffffffff1681526020019081526020016000206003016000828254611e589190612d95565b925050819055505050505050565b828054828255906000526020600020908101928215611ea2579160200282015b82811115611ea1578251825591602001919060010190611e86565b5b509050611eaf9190611eb3565b5090565b5b80821115611ecc576000816000905550600101611eb4565b5090565b6000604051905090565b600080fd5b600080fd5b600073ffffffffffffffffffffffffffffffffffffffff82169050919050565b6000611f0f82611ee4565b9050919050565b611f1f81611f04565b8114611f2a57600080fd5b50565b600081359050611f3c81611f16565b92915050565b600060208284031215611f5857611f57611eda565b5b6000611f6684828501611f2d565b91505092915050565b6000611f7a82611ee4565b9050919050565b611f8a81611f6f565b82525050565b600081519050919050565b600082825260208201905092915050565b60005b83811015611fca578082015181840152602081019050611faf565b60008484015250505050565b6000601f19601f8301169050919050565b6000611ff282611f90565b611ffc8185611f9b565b935061200c818560208601611fac565b61201581611fd6565b840191505092915050565b6000819050919050565b61203381612020565b82525050565b600060808201905061204e6000830187611f81565b81810360208301526120608186611fe7565b905081810360408301526120748185611fe7565b9050612083606083018461202a565b95945050505050565b61209581612020565b81146120a057600080fd5b50565b6000813590506120b28161208c565b92915050565b6000602082840312156120ce576120cd611eda565b5b60006120dc848285016120a3565b91505092915050565b60008115159050919050565b6120fa816120e5565b82525050565b600061012082019050612116600083018c611f81565b8181036020830152612128818b611fe7565b9050818103604083015261213c818a611fe7565b905061214b60608301896120f1565b612158608083018861202a565b61216560a083018761202a565b61217260c083018661202a565b61217f60e083018561202a565b61218d61010083018461202a565b9a9950505050505050505050565b60006020820190506121b0600083018461202a565b92915050565b600081519050919050565b600082825260208201905092915050565b6000819050602082019050919050565b6121eb81612020565b82525050565b60006121fd83836121e2565b60208301905092915050565b6000602082019050919050565b6000612221826121b6565b61222b81856121c1565b9350612236836121d2565b8060005b8381101561226757815161224e88826121f1565b975061225983612209565b92505060018101905061223a565b5085935050505092915050565b6000602082019050818103600083015261228e8184612216565b905092915050565b600080fd5b600080fd5b7f4e487b7100000000000000000000000000000000000000000000000000000000600052604160045260246000fd5b6122d882611fd6565b810181811067ffffffffffffffff821117156122f7576122f66122a0565b5b80604052505050565b600061230a611ed0565b905061231682826122cf565b919050565b600067ffffffffffffffff821115612336576123356122a0565b5b61233f82611fd6565b9050602081019050919050565b82818337600083830152505050565b600061236e6123698461231b565b612300565b90508281526020810184848401111561238a5761238961229b565b5b61239584828561234c565b509392505050565b600082601f8301126123b2576123b1612296565b5b81356123c284826020860161235b565b91505092915050565b600080600080600080600060e0888a0312156123ea576123e9611eda565b5b600088013567ffffffffffffffff81111561240857612407611edf565b5b6124148a828b0161239d565b975050602088013567ffffffffffffffff81111561243557612434611edf565b5b6124418a828b0161239d565b965050604088013567ffffffffffffffff81111561246257612461611edf565b5b61246e8a828b0161239d565b955050606088013567ffffffffffffffff81111561248f5761248e611edf565b5b61249b8a828b0161239d565b945050608088013567ffffffffffffffff8111156124bc576124bb611edf565b5b6124c88a828b0161239d565b93505060a06124d98a828b016120a3565b92505060c06124ea8a828b016120a3565b91505092959891949750929550565b61250281611f6f565b811461250d57600080fd5b50565b60008135905061251f816124f9565b92915050565b60008060006060848603121561253e5761253d611eda565b5b600061254c86828701612510565b935050602084013567ffffffffffffffff81111561256d5761256c611edf565b5b6125798682870161239d565b925050604084013567ffffffffffffffff81111561259a57612599611edf565b5b6125a68682870161239d565b9150509250925092565b60006020820190506125c560008301846120f1565b92915050565b6125d481611f04565b82525050565b60006020820190506125ef60008301846125cb565b92915050565b60006101408201905061260b600083018d61202a565b818103602083015261261d818c611fe7565b90508181036040830152612631818b611fe7565b90508181036060830152612645818a611fe7565b905081810360808301526126598189611fe7565b905081810360a083015261266d8188611fe7565b905061267c60c083018761202a565b61268960e083018661202a565b6126976101008301856120f1565b6126a56101208301846125cb565b9b9a5050505050505050505050565b7f4e487b7100000000000000000000000000000000000000000000000000000000600052602260045260246000fd5b600060028204905060018216806126fb57607f821691505b60208210810361270e5761270d6126b4565b5b50919050565b7f596f752063616e74207769746864726177206d6f7265207468616e20796f752060008201527f6861766500000000000000000000000000000000000000000000000000000000602082015250565b6000612770602483611f9b565b915061277b82612714565b604082019050919050565b6000602082019050818103600083015261279f81612763565b9050919050565b7f4661696c656420746f2073656e64204574686572000000000000000000000000600082015250565b60006127dc601483611f9b565b91506127e7826127a6565b602082019050919050565b6000602082019050818103600083015261280b816127cf565b9050919050565b7f4e487b7100000000000000000000000000000000000000000000000000000000600052601160045260246000fd5b600061284c82612020565b915061285783612020565b925082820390508181111561286f5761286e612812565b5b92915050565b7f436172206973206e6f7420617661696c61626c65000000000000000000000000600082015250565b60006128ab601483611f9b565b91506128b682612875565b602082019050919050565b600060208201905081810360008301526128da8161289e565b9050919050565b7f596f752063616e206e6f742072656e7420617420746869732074696d65000000600082015250565b6000612917601d83611f9b565b9150612922826128e1565b602082019050919050565b600060208201905081810360008301526129468161290a565b9050919050565b7f796f7572206465706f73697420697320746f6f206c6f77000000000000000000600082015250565b6000612983601783611f9b565b915061298e8261294d565b602082019050919050565b600060208201905081810360008301526129b281612976565b9050919050565b7f596f75206861766520746f20626520616e206f776e657220746f20616464206160008201527f2063617200000000000000000000000000000000000000000000000000000000602082015250565b6000612a15602483611f9b565b9150612a20826129b9565b604082019050919050565b60006020820190508181036000830152612a4481612a08565b9050919050565b60008190508160005260206000209050919050565b60006020601f8301049050919050565b600082821b905092915050565b600060088302612aad7fffffffffffffffffffffffffffffffffffffffffffffffffffffffffffffffff82612a70565b612ab78683612a70565b95508019841693508086168417925050509392505050565b6000819050919050565b6000612af4612aef612aea84612020565b612acf565b612020565b9050919050565b6000819050919050565b612b0e83612ad9565b612b22612b1a82612afb565b848454612a7d565b825550505050565b600090565b612b37612b2a565b612b42818484612b05565b505050565b5b81811015612b6657612b5b600082612b2f565b600181019050612b48565b5050565b601f821115612bab57612b7c81612a4b565b612b8584612a60565b81016020851015612b94578190505b612ba8612ba085612a60565b830182612b47565b50505b505050565b600082821c905092915050565b6000612bce60001984600802612bb0565b1980831691505092915050565b6000612be78383612bbd565b9150826002028217905092915050565b612c0082611f90565b67ffffffffffffffff811115612c1957612c186122a0565b5b612c2382546126e3565b612c2e828285612b6a565b600060209050601f831160018114612c615760008415612c4f578287015190505b612c598582612bdb565b865550612cc1565b601f198416612c6f86612a4b565b60005b82811015612c9757848901518255600182019150602085019450602081019050612c72565b86831015612cb45784890151612cb0601f891682612bbd565b8355505b6001600288020188555050505b505050505050565b7f796f75206861766520746f2072656e7420612063617220666972737400000000600082015250565b6000612cff601c83611f9b565b9150612d0a82612cc9565b602082019050919050565b60006020820190508181036000830152612d2e81612cf2565b9050919050565b7f4e487b7100000000000000000000000000000000000000000000000000000000600052601260045260246000fd5b6000612d6f82612020565b9150612d7a83612020565b925082612d8a57612d89612d35565b5b828204905092915050565b6000612da082612020565b9150612dab83612020565b9250828201905080821115612dc357612dc2612812565b5b92915050565b7f596f752063616e206e6f74207769746864726177207768696c652072656e746960008201527f6e67206120636172000000000000000000000000000000000000000000000000602082015250565b6000612e25602883611f9b565b9150612e3082612dc9565b604082019050919050565b60006020820190508181036000830152612e5481612e18565b9050919050565b6000612e6682612020565b9150612e7183612020565b9250817fffffffffffffffffffffffffffffffffffffffffffffffffffffffffffffffff0483118215151615612eaa57612ea9612812565b5b828202905092915050565b7f596f7520646f6e2774206861766520656e6f7567682066756e647320746f206360008201527f6f766572207061796d656e742e20506c65617365206d616b652061206465706f60208201527f7369742e00000000000000000000000000000000000000000000000000000000604082015250565b6000612f37604483611f9b565b9150612f4282612eb5565b606082019050919050565b60006020820190508181036000830152612f6681612f2a565b905091905056fea2646970667358221220d387b9e31bb91a52d8dc6c07d910c3663c1f7db5d537a1a964ee575003afd64564736f6c63430008100033",
  "linkReferences": {},
  "deployedLinkReferences": {}
}